:10E00000D2C10000E0C10000DEC10000DCC10000A0
:10E01000DAC10000D8C10000D6C10000D4C10000A0
:10E02000D2C10000D0C10000CEC10000CCC10000B0
:10E03000CAC10000C8C10000C6C10000C4C10000C0
:10E04000C2C10000C0C100000C9452790C94277921
:10E05000BAC10000B8C10000B6C10000B4C10000E0
:10E06000B2C10000B0C10000AEC10000ACC10000F0
:10E07000AAC10000A8C10000A6C10000A4C1000000
:10E08000A2C10000A0C100009EC100005253323363
:10E090003220202032352E31302E313500426F6F44
:10E0A000746C6F61646572202056342E30000D0A46
:10E0B00000736F757263652F626F6F746C6F61644C
:10E0C00065722F626F6F746C6F616465722E63206E
:10E0D00032332E31302E323031352056312E302E23
:10E0E000310D0A0020203C656D7074793E0D0A00E8
:10E0F000626F6F746C6F616465723A0D0A000D0A8D
:10E10000000D0A003136303030303030003A200017
:10E110002020465F43505500736F757263652F640E
:10E12000656C61792F64656C61792E632032372EBE
:10E1300030392E323031352056312E302E300D0A06
:10E14000000D0A0020205B656D7074795D0D0A007A
:10E1500064656C61793A0D0A000D0A0020205B6548
:10E160006D7074795D0D0A00736F757263652F733E
:10E170007472696E672F737472696E672E632030D4
:10E18000352E31302E323031352056312E312E3071
:10E190000D0A000D0A0020205B656D7074795D0D1D
:10E1A0000A00737472696E673A0D0A0066616C73D7
:10E1B000650074727565000D0A000D0A005B756ECE
:10E1C000646566696E65645D003A200020204449FC
:10E1D00053504C41595F444154415F4849000D0A36
:10E1E0000041003A20002020444953504C41595FDF
:10E1F000444154415F504F5254000D0A0036003ADA
:10E2000020002020444953504C41595F50494E5FF3
:10E210005257000D0A0035003A200020204449538F
:10E22000504C41595F50494E5F5253000D0A003423
:10E23000003A20002020444953504C41595F504936
:10E240004E5F45000D0A0041003A2000202044495D
:10E2500053504C41595F504F525400736F75726365
:10E26000652F646973706C61792F646973706C6178
:10E27000792E632032372E30392E32303135205608
:10E28000312E302E300D0A000D0A000D0A003A2002
:10E29000002020656E61626C656400646973706C57
:10E2A00061793A0D0A000D0A000D0A003634003A71
:10E2B0002000202055415254305F5458000D0A0070
:10E2C0003634003A2000202055415254305F5258D5
:10E2D000000D0A003136303030303030003A200046
:10E2E0002020465F435055000D0A0061746D65673C
:10E2F000613634003A200020204D435500736F757D
:10E300007263652F75617274302F75617274305F3E
:10E3100061746D65676136342E632032372E303973
:10E320002E323031352056312E302E300D0A00730A
:10E330006F757263652F75617274302F75617274B9
:10E34000302E632032372E30392E32303135205680
:10E35000312E302E300D0A000D0A000D0A003A2031
:10E360000020207278000D0A003A200020207478E6
:10E37000000D0A003A2000202062617564000D0A39
:10E38000003A200020205542525230000D0A003A37
:10E3900020002020656E61626C6564007561727496
:10E3A000303A0D0A000011241FBECFEFD0E1DEBFCE
:10E3B000CDBF11E0A0E0B1E001C01D92A738B107C8
:10E3C000E1F797D7FDC71CCE1092640084E08093DC
:10E3D000650082E390E026D28091630082FD11C047
:10E3E0008EE77AD56DE970EE82E296E764D361E05C
:10E3F00080E04CD46CE870EE82E296E75CD38FEF5D
:10E40000089580E00895109264001092650037D45A
:10E41000D8D58AE090E006D242C669C5BFC55CC5C2
:10E420008FEF0895089508958FEF089586E4F7DF3C
:10E4300084E3F5DF8DE0F3CF81E4F1DF809100012B
:10E44000EEDF80910101EBDF80E0E9DF8DE0E7CFD7
:10E45000CF93DF93EC0160EF70EE2DD364EE70EE9E
:10E46000CE01DF91CF9127C3CF93DF93EC0161EB16
:10E4700070EE21D36EEA70EECE01DF91CF911BC317
:10E480007894C1DFF89481E085BF15BE8091680063
:10E4900080FDFCCFE199FECF81E180936800E89593
:10E4A00084E190E0BFD10C9400000895CF93C3E3C2
:10E4B000C15039F0B3DF811109C081E090E0B2D1E1
:10E4C000F7CFAEDF811104C0DBDF02C080E001C006
:10E4D0008FEFCF910895CF9385E6A1DF82E79FDF8D
:10E4E00082E79DDF8FE69BDF82E799DF8DE097DF94
:10E4F0009BDF811101C0C4DFC4E690DF811102C03F
:10E50000C15002C08ADFC4E681E090E08BD1C11126
:10E51000F4CFCF910895CF93C5E6C15039F07EDF97
:10E52000811106C081E090E07DD1F7CFD4DF01C03A
:10E53000CFEF8C2FCF910895CF93C82FECDF882396
:10E5400039F06BDF8C1711F0C6DF02C08FEF01C00E
:10E5500080E0CF9108958EE6EFDF8823E1F086E634
:10E56000EBDF8823C1F08FE6E7DF8823A1F089E4A1
:10E5700056DF8EE154DF86E952DF82E050DF80E033
:10E580004EDF81E04CDF80E04ADF80EE48DF80E054
:10E5900046DF8DE044CF089585E6CEDF882341F045
:10E5A0008CE6CADF882321F080E7C6DF81113BCFEC
:10E5B000089584E6C1DF882381F082E7BDDF8823E8
:10E5C00061F087E6B9DF882341F085E6B5DF88236F
:10E5D00021F084E7B1DF81112FCF0895BF92CF9250
:10E5E000DF92EF92FF920F931F93CF93DF9382E717
:10E5F000A3DF882309F475C089E69EDF882309F428
:10E6000070C084E799DF882309F46BC085E694DF46
:10E61000882309F466C08091680080FDFCCFE199F1
:10E62000FECFE0910001F091010183E0809368004A
:10E63000E8958091680080FDFCCF7F01F394EF01A5
:10E64000D12CBB24B39467DF882309F44AC0E5DEEC
:10E65000C82E082F60DF882309F443C0DEDEC80E11
:10E66000DC0C182FF8948091680080FDFCCFE199B4
:10E67000FECFFE010801B0926800E895112478945D
:10E680002296CE15DF05F9F6F8948091680080FD9A
:10E69000FCCFE199FECFE0910001F091010185E00E
:10E6A00080936800E8958091680080FDFCCF7894A5
:10E6B0008091680080FDFCCFE199FECF81E18093DD
:10E6C0006800E89587E5ABDE8D2DA9DE8DE0DF9152
:10E6D000CF911F910F91FF90EF90DF90CF90BF905F
:10E6E0009ECEDF91CF911F910F91FF90EF90DF9021
:10E6F000CF90BF900895FF920F931F93CF93DF9316
:10E7000085E61ADF882361F181E616DF882341F16F
:10E7100084E612DF882321F182E581DE80916800A2
:10E7200080FDFCCFE199FECF81E180936800E89500
:10E73000C0910001D09101018E011395F12CFE01D1
:10E740008491F80E6CDE2196C017D107C1F78F2D8A
:10E7500066DE8DE0DF91CF911F910F91FF905FCE2C
:10E76000DF91CF911F910F91FF900895CF92DF928B
:10E77000EF92FF9285E6E0DE882309F439C084E752
:10E78000DBDE882309F434C081E6D6DE882381F1FC
:10E7900084E6D2DE882361F182E7CEDE882341F170
:10E7A000BADE882329F139DEC12CD12C7601C82E9E
:10E7B000B2DE8823E9F031DED82EADDE8823C1F049
:10E7C0002CDECC24EE24FF24C11480EED806E10414
:10E7D000F10428F0FF90EF90DF90CF907CCED092A4
:10E7E0000101C0920001FF90EF90DF90CF9024CE06
:10E7F000FF90EF90DF90CF90089588E79DDE88230B
:10E8000059F089E699DE882339F084E795DE88237C
:10E8100019F080E404DE34CE089581E085BF82E003
:10E8200085BF0895009769F020ED37E000000000F3
:10E83000000000002150310921153105B9F7019779
:10E84000F1CF08958A95F1F7089534E3009729F000
:10E85000232F2A95F1F70197F9CF0895CF93DF93EE
:10E86000EC0160E571EE27D164E471EECE0123D1B5
:10E8700061E471EECE01DF91CF911DC1CF93DF93A3
:10E88000EC0168E171EE17D14FE060E171EECE016D
:10E890002FD16DE071EECE010ED164E071EECE01AC
:10E8A0000AD161E071EECE0106D16EEF70EECE01BD
:10E8B000DF91CF9100C1FF920F931F93CF93DF930E
:10E8C00000D000D000D0CDB7DEB78C01CB014132F3
:10E8D00008F040E250E02AE030E0FF24F394F50E27
:10E8E000E1E0F0E0EC0FFD1FE50FF11DB90132D5BD
:10E8F000805D8083CB01009711F05F2DEECFF41681
:10E9000038F480E24E83F80109954E814150F7CFEB
:10E91000FA94FFEFFF1651F0E1E0F0E0EC0FFD1F7D
:10E92000EF0DF11D8081F8010995F2CF26960FB603
:10E93000F894DEBF0FBECDBFDF91CF911F910F9135
:10E94000FF9008950F931F93CF93DF9300D01F92F2
:10E95000CDB7DEB78C0177FF13C071956195710952
:10E960008DE24B8369837A83F80109954B81698134
:10E970007A81413218F4442319F001C040E2415039
:10E98000C8010F900F900F90DF91CF911F910F91C1
:10E9900092CFEF92FF920F931F93CF93DF931F922B
:10E9A000CDB7DEB77C018B0147FF09C0419580E3FD
:10E9B0004983F701099588E7F701099549814530B1
:10E9C00054F484E090E0841B910947FD9395982FBF
:10E9D000990F990F01C090E0092E02C0000F111F7E
:10E9E0000A94E2F790319CF4812F82958F708A30DF
:10E9F00010F4805D01C0895C9983F701099584E07A
:10EA0000000F111F8A95E1F799819C5FEBCF0F9062
:10EA1000DF91CF911F910F91FF90EF900895CF92CA
:10EA2000DF92FF920F931F93CF93DF931F92CDB787
:10EA3000DEB76C018B0147FF09C0419580E3498334
:10EA4000F601099582E6F60109954981413124F4E0
:10EA500020E1F22EF41A01C0F12C0F2C02C0000F9D
:10EA6000111F0A94E2F7FFE0FF155CF017FF02C0E8
:10EA700081E301C080E3F6010995000F111FF394B3
:10EA8000F2CF0F90DF91CF911F910F91FF90DF9008
:10EA9000CF9008950F931F93CF93DF938C01EB01D9
:10EAA0008991882319F0F8010995FACFDF91CF9168
:10EAB0001F910F9108950F931F93CF93DF93EC0154
:10EAC000FB0184918B010F5F1F4F882321F0FE0112
:10EAD0000995B801F5CFDF91CF911F910F9108955E
:10EAE000662319F062EB71EE02C06CEA71EEE3CFBF
:10EAF000FF920F931F93CF93DF93EC014150FB01E3
:10EB00004F3FB1F084918F010F5F1F4FFF24FA94A4
:10EB1000F40E811108C0142F112351F080E2FE0180
:10EB200009951150F9CFFE010995F8014F2DE8CF55
:10EB3000DF91CF911F910F91FF900895CF93DF93B5
:10EB4000EC0162EA71EEB7DF66E971EECE01B3DF88
:10EB500063E971EECE01DF91CF91ADCFCF93DF931B
:10EB6000EC0168E671EEA7DF6CE571EECE01A3DF84
:10EB700069E571EECE01DF91CF919DCF81E090E00C
:10EB800064DEDC9A81E090E060DEDC9881E090E079
:10EB90005CCECF93DF93809102018823A1F1DE9AAE
:10EBA000DD98DC988BB3807F8BBB8AB3807F8ABB78
:10EBB0008AB380678ABB80910201853010F084E0BF
:10EBC00003C08091020181508093020181E090E0B6
:10EBD0003CDEC4E6DFEF809102018F3F61F0C1505F
:10EBE00051F0DC9A81E090E030DECB9BD0930201C3
:10EBF000DC98C4DFF0CFDE9880910201811103C060
:10EC00008AB38F788ABBDF91CF910895CF93C82FB5
:10EC1000C0DF809102018F3F99F49AB39F609ABB45
:10EC20002BB39C2F92959F70207F922B9BBBA6DFCE
:10EC30009BB38C2F8F70907F892B8BBBCF919ECFF6
:10EC4000CF910895CF93C82FA4DF809102018F3F09
:10EC5000A1F4DD9A9AB39F609ABB2BB39C2F929537
:10EC60009F70207F922B9BBB89DF9BB38C2F8F7073
:10EC7000907F892B8BBBCF9181CFCF91089581E07D
:10EC8000C5CF82E0C3CF83708C60C0CF8F7060FD32
:10EC9000806461FD80618068B9CFEF92FF920F932D
:10ECA0001F93CF93DF9300D0CDB7DEB7877028E0F6
:10ECB000829FC0011124806469837A83A7DF698100
:10ECC000E62E7A81F72E8701085F1F4FF7018191A9
:10ECD0007F01B8DFE016F106C9F70F900F90DF91C2
:10ECE000CF911F910F91FF90EF9008958FEF809338
:10ECF000020108951092020108959091020181E0AD
:10ED00009F3F09F080E00895CF93DF93EC016BE91A
:10ED100072EED1DE4FE061E972EECE01E9DE6EE81F
:10ED200072EECE01C8DE8091020161E08F3F09F0F2
:10ED300060E0CE01D5DE6BE872EECE01BCDE68E8A5
:10ED400072EECE01DF91CF91B6CECF93DF93EC017F
:10ED50006BE572EEB0DE44E16CE472EECE01C8DE2B
:10ED600069E472EECE01A7DE67E472EECE01A3DEA7
:10ED700064E472EECE019FDE44E164E372EECE0104
:10ED8000B7DE61E372EECE0196DE6FE272EECE0187
:10ED900092DE6CE272EECE018EDE44E16BE172EE49
:10EDA000CE01A6DE68E172EECE0185DE66E172EE8E
:10EDB000CE0181DE63E172EECE017DDE44E162E0F0
:10EDC00072EECE0195DE6FEF71EECE0174DE6DEF67
:10EDD00071EECE0170DE6AEF71EECE016CDE44E1C1
:10EDE00066EE71EECE0184DE63EE71EECE0163DE7F
:10EDF00061EE71EECE015FDE6EED71EECE015BDE97
:10EE000044E16CEC71EECE0173DE69EC71EECE0183
:10EE100052DE6DEB71EECE014EDE6AEB71EECE018D
:10EE20004ADE67EB71EECE01DF91CF9144CE8FEFDA
:10EE300080930201DE98DD98DC988BB3807F8BBBDA
:10EE40008AB380678ABB8AB38F608ABB8FE090E009
:10EE5000E9DC8BB3807F83608BBB90DE85E090E044
:10EE6000E1DC8CDE86E990E0F0DC88DEDE988AB3B7
:10EE70008F608ABB8BB3807F82608BBB7FDE88E232
:10EE8000C5DE86E0C3DE8CE0C1DE81E0BFCE2FB7F9
:10EE9000F8943091860190914401391306C0539B38
:10EEA00004C05D9B02C08CB914C0E92FF0E0ED5F97
:10EEB000FE4F808381E0890F803410F081EC890F50
:10EEC000381303C02FBF80E0089580934401539905
:10EED000559A2FBF8FEF0895CF93C82F8C2FD7DF70
:10EEE000811103C078945399F9CFCF910895F89484
:10EEF000909145018091430198130CC0549B04C02C
:10EF00005F9B02C08CB113C07894549B12C0000068
:10EF1000F894FACFE92FF0E0EA5BFE4F808121E020
:10EF2000290F203410F021EC290F2093450178940B
:10EF3000089580E008959FB7F8942091450180914D
:10EF40004301281771F0E22FF0E0EA5BFE4F808169
:10EF500031E0320F303410F031EC320F3093450194
:10EF600005C0549B05C05F9B03C08CB19FBF089533
:10EF70009FBF80E008953FB7F8949091860120915B
:10EF80004401822F891B291708F4805C8F3F21F0F0
:10EF9000539B02C05D9B8F5F3FBF08953FB7F894BE
:10EFA0009091450120914301822F891B291708F474
:10EFB000805C8F3F21F0549B02C05F998F5F3FBF01
:10EFC00008958FB7F8941092860110924401109220
:10EFD0004501109243018FBF0895CF939C01CFB795
:10EFE000009711F480E01DC0BC017695679580E024
:10EFF00090E0605C7D4B804F9F4F40E050E0BED181
:10F000002150310941095109452B61F7C901882770
:10F01000907F892B39F7F8943093900029B9CFBFAE
:10F020008FEFCF9108958FB7F89499B1292F9091D0
:10F030009000392F8FBF3F702F5F3F4FB9017695FA
:10F04000679580E090E0605C7D4B804F9F4F40E093
:10F0500050E094D1452B11F4C90108958FEF9FEF33
:10F0600008958FB7F894539A549A2091440190913F
:10F0700086012913559A579A8FBF089510928601D9
:10F080001092440110924501109243011BB81AB826
:10F090008EE08093950080E091EE9FDFE2CF8FB706
:10F0A000F89453985498559857988FBF08959AB1EB
:10F0B000987181E0983109F080E0819508950F936F
:10F0C0001F93CF93DF93EC016CE973EEF4DC4FE018
:10F0D00062E973EECE010CDD6FE873EECE01EBDC7E
:10F0E000E6DF682FCE01FCDC6CE873EECE01E3DCDA
:10F0F0008FB7F89499B1692F90919000792F8FBFB5
:10F100008B011F704FE064E873EECE01F1DC61E823
:10F1100073EECE01D0DC45E0B801CE01CCDB6EE76A
:10F1200073EECE01C8DC4FE067E773EECE01E0DCA2
:10F1300064E773EECE01BFDC76DF45E0BC01CE01B3
:10F14000BADB61E773EECE01B6DC4FE06CE673EE3E
:10F15000CE01CEDC69E673EECE01ADDC0CDF682FAC
:10F1600070E041E0CE01A7DB66E673EECE01A3DCE2
:10F170004FE061E673EECE01BBDC6EE573EECE01CF
:10F180009ADC0CDF682F70E041E0CE0194DB6BE588
:10F1900073EECE0190DC68E573EECE01DF91CF9186
:10F1A0001F910F9188CCCF93DF93EC016FE273EE48
:10F1B00082DC6DEF72EECE017EDC4FE067EF72EE27
:10F1C000CE0196DC64EF72EECE0175DC6BEE72EE72
:10F1D000CE0171DC68EE72EECE016DDC4FE060EEC8
:10F1E00072EECE0185DC6DED72EECE0164DC64ED75
:10F1F00072EECE0160DC61ED72EECE015CDC4FE0C0
:10F2000066EC72EECE0174DC63EC72EECE0153DC80
:10F2100060EC72EECE014FDC6DEB72EECE014BDC9A
:10F220004FE062EB72EECE0163DC6FEA72EECE016C
:10F2300042DC6CEA72EECE013EDC69EA72EECE018F
:10F240003ADC66EA72EECE01DF91CF9134CC1F92A8
:10F250000F920FB60F9211242F938F939F93EF93DA
:10F26000FF939091860120914401921781F0E92F3C
:10F27000F0E0ED5FFE4F80818CB981E0890F803432
:10F2800010F081EC890F80938601821301C055989C
:10F29000FF91EF919F918F912F910F900FBE0F9043
:10F2A0001F9018951F920F920FB60F9211242F9353
:10F2B0008F939F93EF93FF9320914501909143018A
:10F2C000E92FF0E08CB1EA5BFE4F808381E0890F8B
:10F2D000803410F081EC890F281380934301FF9153
:10F2E000EF919F918F912F910F900FBE0F901F90D4
:10F2F0001895F89492DA9BDDC1DE66D8811101C0C1
:10F30000BFD87894D3D88111FDCF87D88836B1F093
:10F3100040F48136C9F0853699F08F33C9F486D828
:10F32000F1CF823799F020F4893691F414D9EACFDD
:10F33000833741F0873761F451D9E4CF2DD9E2CF3B
:10F340005CDAE0CF13DADECF34D9DCCFD4D9DACF30
:10F35000C2D8D8CFAA1BBB1B51E107C0AA1FBB1F35
:10F36000A617B70710F0A61BB70B881F991F5A9551
:10F37000A9F780959095BC01CD010895A1E21A2EC0
:10F38000AA1BBB1BFD010DC0AA1FBB1FEE1FFF1F49
:10F39000A217B307E407F50720F0A21BB30BE40B99
:10F3A000F50B661F771F881F991F1A9469F76095E0
:10F3B0007095809590959B01AC01BD01CF0108959A
:04F3C000F894FFCFEF
:040000030000E00019
:00000001FF
