:020000023000CC
:10E00000F4C1000006C2000004C2000002C2000009
:10E0100000C20000FEC10000FCC10000FAC1000007
:10E02000F8C10000F6C10000F4C10000F2C1000018
:10E03000F0C10000EEC10000ECC10000EAC1000028
:10E04000E8C10000E6C10000E4C10000E2C1000038
:10E05000E0C10000DEC10000DCC10000DAC1000048
:10E06000D8C100000D9418FA0D94E4F9D2C1000053
:10E07000D0C10000CEC10000CCC10000CAC1000068
:10E08000C8C10000C6C10000C4C10000C2C1000078
:10E09000C0C10000BEC10000BCC10000BAC1000088
:10E0A000B8C10000B6C10000B4C10000B2C1000098
:10E0B000B0C10000AEC10000ACC10000AAC10000A8
:10E0C000A8C10000A6C10000A4C100005253323311
:10E0D0003220202032352E31302E313500426F6F04
:10E0E000746C6F61646572202056342E30000D0A06
:10E0F00000736F757263652F626F6F746C6F61640C
:10E1000065722F626F6F746C6F616465722E63202D
:10E1100032362E31302E323031352056312E302EDF
:10E12000320D0A0020203C656D7074793E0D0A00A6
:10E13000626F6F746C6F616465723A0D0A000D0A4C
:10E14000000D0A003136303030303030003A2000D7
:10E150002020465F43505500736F757263652F64CE
:10E16000656C61792F64656C61792E632032372E7E
:10E1700030392E323031352056312E302E300D0AC6
:10E18000000D0A0020205B656D7074795D0D0A003A
:10E1900064656C61793A0D0A000D0A0020205B6508
:10E1A0006D7074795D0D0A00736F757263652F73FE
:10E1B0007472696E672F737472696E672E63203094
:10E1C000352E31302E323031352056312E312E3031
:10E1D0000D0A000D0A0020205B656D7074795D0DDD
:10E1E0000A00737472696E673A0D0A0066616C7397
:10E1F000650074727565000D0A000D0A005B756E8E
:10E20000646566696E65645D003A200020204449BB
:10E2100053504C41595F444154415F4849000D0AF5
:10E220000041003A20002020444953504C41595F9E
:10E23000444154415F504F5254000D0A0036003A99
:10E2400020002020444953504C41595F50494E5FB3
:10E250005257000D0A0035003A200020204449534F
:10E26000504C41595F50494E5F5253000D0A0034E3
:10E27000003A20002020444953504C41595F5049F6
:10E280004E5F45000D0A0041003A2000202044491D
:10E2900053504C41595F504F525400736F75726325
:10E2A000652F646973706C61792F646973706C6138
:10E2B000792E632032372E30392E323031352056C8
:10E2C000312E302E300D0A000D0A000D0A003A20C2
:10E2D000002020656E61626C656400646973706C17
:10E2E00061793A0D0A000D0A000D0A003634003A31
:10E2F0002000202055415254305F5458000D0A0030
:10E300003634003A2000202055415254305F525894
:10E31000000D0A003136303030303030003A200005
:10E320002020465F435055000D0A0061746D6567FB
:10E330006132353631003A200020204D43550073BC
:10E340006F757263652F75617274302F75617274A9
:10E35000305F61746D656761323536312E6320320E
:10E36000372E30392E323031352056312E302E3086
:10E370000D0A00736F757263652F75617274302FAB
:10E3800075617274302E632032362E31302E323069
:10E3900031352056312E302E310D0A000D0A000D78
:10E3A0000A003A200020207278000D0A003A20006E
:10E3B00020207478000D0A003A2000202062617548
:10E3C00064000D0A003A20002020554252523000CD
:10E3D0000D0A003A20002020656E61626C656400C1
:10E3E00075617274303A0D0A000011241FBECFEF20
:10E3F000D1E2DEBFCDBF01E00CBF12E0A0E0B2E091
:10E4000001C01D92A938B107E1F70F9444FA0D94A9
:10E41000AEFAF6CD13BA84E084BB82E390E074D206
:10E42000929911C08EE7DED56DED70EE8BE996EF17
:10E43000B2D361E080E0A3D46CEC70EE8BE996EF90
:10E44000AAD38FEF089580E0089513BA14BA90D438
:10E4500054D68AE090E058D2D3C6D1C537C6C2C5DB
:10E460008FEF0895089508958FEF089586E4F7DFFC
:10E4700084E3F5DF8DE0F3CF81E4F1DF80910002EA
:10E48000EEDF80910102EBDF80910202E8DF8DE098
:10E49000E6CFCF93DF93EC0160E371EE7CD364E2CF
:10E4A00071EECE01DF91CF9176C3CF93DF93EC0174
:10E4B00061EF70EE70D36EEE70EECE01DF91CF9112
:10E4C0006AC37894C2DFF89481E085BF15BE07B6B1
:10E4D00000FCFDCFF999FECF81E180935700E895CC
:10E4E00084E190E011D20C9400000895CF93C3E32F
:10E4F000C15039F0B3DF811109C081E090E004D24E
:10E50000F7CFAEDF811104C0DCDF02C080E001C0C4
:10E510008FEFCF910895CF93F89407B600FCFDCF0D
:10E52000F999FECF81E180935700E8957894F999A5
:10E53000FECF07B600FCFDCF85E691DF82E78FDFD7
:10E5400082E78DDF8FE68BDF82E789DF8DE087DF73
:10E550008BDF811101C0B5DFC4E680DF811102C00D
:10E56000C15002C07ADFC4E681E090E0CDD1C11194
:10E57000F4CFCF910895CF93C5E6C15039F06EDF47
:10E58000811106C081E090E0BFD1F7CFC4DF01C0A8
:10E59000CFEF8C2FCF910895CF93C82FECDF882336
:10E5A00039F05BDF8C1711F0B6DF02C08FEF01C0CE
:10E5B00080E0CF9108958EE6EFDF882309F42BC029
:10E5C00086E6EADF882339F18FE6E6DF882319F152
:10E5D00089E445DFE0E0F0E081E280935700849138
:10E5E0003EDFE2E0F0E081E280935700849137DF84
:10E5F000E4E0F0E081E280935700849130DF80E036
:10E600002EDF81E02CDF80E02ADF80EE28DF83E050
:10E6100026DF8DE024CF089585E6BEDF882341F014
:10E620008CE6BADF882321F080E7B6DF81111BCFAB
:10E63000089584E6B1DF882381F082E7ADDF882387
:10E6400061F087E6A9DF882341F085E6A5DF88230E
:10E6500021F084E7A1DF81110FCF0895AF92BF921F
:10E66000CF92DF92EF92FF920F931F93CF93DF939E
:10E6700082E792DF882309F49CC089E68DDF882336
:10E6800009F497C084E788DF882309F492C085E6FF
:10E6900083DF882309F48DC0F89407B600FCFDCF12
:10E6A000F999FECF8091000290910102A09102029F
:10E6B000B091030223E0FC01A0935B00209357007C
:10E6C000E8957894F999FECF07B600FCFDCFC0908D
:10E6D0000002D0900102E0900202F090030200E8F4
:10E6E00010E0AA24A39447DF882309F462C0B5DEB2
:10E6F000B82EC82F40DF882309F45BC0AEDEB80E09
:10E700001B0DD82FF89407B600FCFDCFF999FECF6A
:10E710000E01F601E0925B00A0925700E8951124EB
:10E720007894F999FECF07B600FCFDCF015082E046
:10E73000C80ED11CE11CF11C0111D5CFF89407B60D
:10E7400000FCFDCFF999FECF4091000250910102EB
:10E75000609102027091030285E0FA0160935B0010
:10E7600080935700E8957894F999FECF07B600FC9E
:10E77000FDCFF89407B600FCFDCFF999FECF81E1FB
:10E7800080935700E8957894F999FECF07B600FC7E
:10E79000FDCF87E564DE812F62DE8DE0DF91CF91D2
:10E7A0001F910F91FF90EF90DF90CF90BF90AF90AF
:10E7B00056CEDF91CF911F910F91FF90EF90DF9098
:10E7C000CF90BF90AF900895CF92DF92EF92FF92DB
:10E7D0001F93CF93DF9385E6DFDE882369F181E61F
:10E7E000DBDE882349F184E6D7DE882329F182E540
:10E7F00036DEC0900002D0900102E0900202F0905C
:10E800000302C0E0D1E010E0EBBEF6018791180FE3
:10E8100026DE21978FEFC81AD80AE80AF80A20974F
:10E8200099F7812F1CDE8DE0DF91CF911F91FF9032
:10E83000EF90DF90CF9013CEDF91CF911F91FF909B
:10E84000EF90DF90CF900895CF92DF92EF92FF92FA
:10E8500085E6A2DE882309F43DC084E79DDE882397
:10E8600009F438C081E698DE8823A1F184E694DEBD
:10E87000882381F182E790DE882361F17CDE8823A2
:10E8800049F1EBDDC12CD12C7601C82E74DE882332
:10E8900009F1E3DDD82E6FDE8823E1F0DEDDE82E1E
:10E8A000CC24C11480EED80683E0E806F10428F0F9
:10E8B000FF90EF90DF90CF902ECEC0920002D092CA
:10E8C0000102E0920202F0920302FF90EF90DF90CB
:10E8D000CF90D2CDFF90EF90DF90CF90089588E752
:10E8E0005BDE882359F089E657DE882339F084E718
:10E8F00053DE882319F080E4B2DDE3CD089581E092
:10E9000085BF82E085BF0895009769F020ED37E06C
:10E9100000000000000000002150310921153105E0
:10E92000B9F70197F1CF08958A95F1F7089534E387
:10E93000009729F0232F2A95F1F70197F9CF089531
:10E94000CF93DF93EC0160E971EE25D164E871EEBD
:10E95000CE0121D161E871EECE01DF91CF911BC1D3
:10E96000CF93DF93EC0168E571EE15D14FE060E5E0
:10E9700071EECE0131D16DE471EECE010CD164E4C3
:10E9800071EECE0108D161E471EECE0104D16EE3E7
:10E9900071EECE01DF91CF91FEC0FF920F931F93D6
:10E9A000CF93DF9300D000D0CDB7DEB78C01CB0181
:10E9B000413208F040E250E02AE030E0FF24F394D6
:10E9C000F50EE1E0F0E0EC0FFD1FE50FF11DB901E0
:10E9D0008FD5805D8083CB01009711F05F2DEECF46
:10E9E000F41638F480E24E83F80119954E814150B7
:10E9F000F7CFFA94FFEFFF1651F0E1E0F0E0EC0FF3
:10EA0000FD1FEF0DF11D8081F8011995F2CF2696BB
:10EA10000FB6F894DEBF0FBECDBFDF91CF911F912F
:10EA20000F91FF9008950F931F93CF93DF9300D022
:10EA3000CDB7DEB78C0177FF13C071956195710971
:10EA40008DE24B8369837A83F80119954B81698143
:10EA50007A81413218F4442319F001C040E2415058
:10EA6000C8010F900F900F90DF91CF911F910F91E0
:10EA700094CFEF92FF920F931F93CF93DF931F9248
:10EA8000CDB7DEB77C018B0147FF09C0419580E31C
:10EA90004983F701199588E7F701199549814530B0
:10EAA00054F484E090E0841B910947FD9395982FDE
:10EAB000990F990F01C090E0092E02C0000F111F9D
:10EAC0000A94E2F790319CF4812F82958F708A30FE
:10EAD00010F4805D01C0895C9983F701199584E089
:10EAE000000F111F8A95E1F799819C5FEBCF0F9082
:10EAF000DF91CF911F910F91FF90EF900895CF92EA
:10EB0000DF92FF920F931F93CF93DF931F92CDB7A6
:10EB1000DEB76C018B0147FF09C0419580E3498353
:10EB2000F601199582E6F60119954981413124F4DF
:10EB300020E1F22EF41A01C0F12C0F2C02C0000FBC
:10EB4000111F0A94E2F7FFE0FF155CF017FF02C007
:10EB500081E301C080E3F6011995000F111FF394C2
:10EB6000F2CF0F90DF91CF911F910F91FF90DF9027
:10EB7000CF9008950F931F93CF93DF938C01EB01F8
:10EB80008991882319F0F8011995FACFDF91CF9177
:10EB90001F910F9108950F931F93CF93DF938C01D3
:10EBA000EB01AE01662757FD6095762F6BBFFA012A
:10EBB00087912196882319F0F8011995F2CFDF91FA
:10EBC000CF911F910F910895662319F062EF71EEB6
:10EBD00002C06CEE71EEDFCFEF92FF920F931F93A6
:10EBE000CF93DF937C01EB0141504F3FC9F08E0181
:10EBF000222717FD2095322F2BBFF80187912196F0
:10EC00001FEF140F811108C0C42FCC2349F080E2FC
:10EC1000F7011995C150F9CFF7011995412FE5CFAB
:10EC2000DF91CF911F910F91FF90EF900895CF93B7
:10EC3000DF93EC0162EE71EEAEDF66ED71EECE01B8
:10EC4000AADF63ED71EECE01DF91CF91A4CFCF9318
:10EC5000DF93EC0168EA71EE9EDF6CE971EECE01A4
:10EC60009ADF69E971EECE01DF91CF9194CF81E017
:10EC700090E05DDE149A81E090E059DE149881E026
:10EC800090E055CECF93DF93809104028823A1F1C9
:10EC9000169A1598149882B1807F82B981B1807FCD
:10ECA00081B981B1806781B980910402853010F00B
:10ECB00084E003C08091040281508093040281E0CB
:10ECC00090E035DEC4E6DFEF809104028F3F61F013
:10ECD000C15051F0149A81E090E029DE039BD0935B
:10ECE00004021498C4DFF0CF1698809104028111B9
:10ECF00003C081B18F7881B9DF91CF910895CF930F
:10ED0000C82FC0DF809104028F3F99F491B19F60BA
:10ED100091B922B19C2F92959F70207F922B92B92E
:10ED2000A6DF92B18C2F8F70907F892B82B9CF9103
:10ED30009ECFCF910895CF93C82FA4DF8091040276
:10ED40008F3FA1F4159A91B19F6091B922B19C2F88
:10ED500092959F70207F922B92B989DF92B18C2F70
:10ED60008F70907F892B82B9CF9181CFCF910895F9
:10ED700081E0C5CF82E0C3CF83708C60C0CF8F703D
:10ED800060FD806461FD80618068B9CFEF92FF9281
:10ED90000F931F93CF93DF931F921F92CDB7DEB7D0
:10EDA000877028E0829FC0011124806469837A8380
:10EDB000A6DF6981E62E7A81F72E8701085F1F4F53
:10EDC000F70181917F01B7DFE016F106C9F70F90D7
:10EDD0000F90DF91CF911F910F91FF90EF900895C9
:10EDE0008FEF809304020895109204020895909189
:10EDF000040281E09F3F09F080E00895CF93DF9304
:10EE0000EC016BED72EEC7DE4FE061ED72EECE010C
:10EE1000E3DE6EEC72EECE01BEDE8091040261E0B4
:10EE20008F3F09F060E0CE01CFDE6BEC72EECE01D9
:10EE3000B2DE68EC72EECE01DF91CF91ACCECF9313
:10EE4000DF93EC016BE972EEA6DE44E16CE872EE52
:10EE5000CE01C2DE69E872EECE019DDE67E872EE99
:10EE6000CE0199DE64E872EECE0195DE44E164E7FE
:10EE700072EECE01B1DE61E772EECE018CDE6FE69E
:10EE800072EECE0188DE6CE672EECE0184DE44E1E5
:10EE90006BE572EECE01A0DE68E572EECE017BDEA0
:10EEA00066E572EECE0177DE63E572EECE0173DECB
:10EEB00044E162E472EECE018FDE6FE372EECE01CA
:10EEC0006ADE6DE372EECE0166DE6AE372EECE01BB
:10EED00062DE44E166E272EECE017EDE63E272EE55
:10EEE000CE0159DE61E272EECE0155DE6EE172EEC8
:10EEF000CE0151DE44E16CE072EECE016DDE69E0E0
:10EF000072EECE0148DE6DEF71EECE0144DE6AEFA7
:10EF100071EECE0140DE67EF71EECE01DF91CF9151
:10EF20003ACE8FEF8093040216981598149882B108
:10EF3000807F82B981B1806781B981B18F6081B9E9
:10EF40008FE090E0E1DC82B1807F836082B98FDE68
:10EF500085E090E0D9DC8BDE86E990E0E8DC87DEB6
:10EF6000169881B18F6081B982B1807F826082B949
:10EF70007EDE88E2C4DE86E0C2DE8CE0C0DE81E0B8
:10EF8000BECE2FB7F8943091880290914602391383
:10EF90000BC04091C10043FF07C04091C00045FF36
:10EFA00003C08093C6001BC0E92FF0E0EB5FFD4F6C
:10EFB000808381E0890F803410F081EC890F381351
:10EFC00003C02FBF80E00895809346028091C10066
:10EFD00083FF05C08091C10080628093C1002FBF74
:10EFE0008FEF0895CF93C82F8C2FCBDF811105C0F1
:10EFF00078948091C10083FDF7CFCF910895F89464
:10F000009091470280914502981313C08091C100EE
:10F0100084FF07C08091C00087FF03C08091C600B5
:10F0200015C078948091C10084FF12C00000F8944C
:10F03000F8CFE92FF0E0E85BFD4F808121E0290F58
:10F04000203410F021EC290F209347027894089582
:10F0500080E008959FB7F89420914702809145027F
:10F06000281771F0E22FF0E0E85BFD4F808131E07E
:10F07000320F303410F031EC320F309347020AC0B7
:10F080008091C10084FF08C08091C00087FF04C048
:10F090008091C6009FBF08959FBF80E008953FB74D
:10F0A000F8949091880220914602822F891B29179B
:10F0B00008F4805C8F3F41F09091C10093FF04C041
:10F0C0009091C00095FF8F5F3FBF08953FB7F894C0
:10F0D0009091470220914502822F891B291708F43D
:10F0E000805C8F3F41F09091C10094FF04C09091EB
:10F0F000C00097FD8F5F3FBF08958FB7F8941092BF
:10F1000088021092460210924702109245028FBF69
:10F110000895CF939C01CFB7009711F480E01EC0F3
:10F12000BC017695679580E090E0605C7D4B804FF8
:10F130009F4F40E050E0F0D1215031094109510981
:10F14000452B61F7C9018827907F892B39F7F894FF
:10F150003093C5002093C400CFBF8FEFCF910895A7
:10F160008FB7F8949091C400292F9091C500392F42
:10F170008FBF3F702F5F3F4FB9017695679580E055
:10F1800090E0605C7D4B804F9F4F40E050E0C4D1E9
:10F19000452B11F4C90108958FEF9FEF08959FB794
:10F1A000F8948091C10088608093C1008091C10073
:10F1B00080618093C10020914602809188022817C7
:10F1C00029F08091C10080628093C1008091C100CC
:10F1D00080688093C1009FBF0895109288021092AA
:10F1E000460210924702109245021092C0001092FF
:10F1F000C1008EE08093C20080E091EE8ADFCFCF25
:10F200009FB7F894E1ECF0E08081877F8083808174
:10F210008F7E808380818F7D808380818F778083C4
:10F220009FBF08959091C100987181E0983109F0D5
:10F2300080E0819508950F931F93CF93DF93EC01A6
:10F2400060EE73EEA8DC4FE066ED73EECE01C4DC39
:10F2500063ED73EECE019FDCE5DF682FCE01B4DCF9
:10F2600060ED73EECE0197DC8FB7F8949091C400F7
:10F27000692F9091C500792F8FBF8B011F704FE0D0
:10F2800068EC73EECE01A8DC65EC73EECE0183DC96
:10F2900045E0B801CE0181DB62EC73EECE017BDC90
:10F2A0004FE06BEB73EECE0197DC68EB73EECE01B3
:10F2B00072DC56DF45E0BC01CE016FDB65EB73EE1F
:10F2C000CE0169DC4FE060EB73EECE0185DC6DEAC8
:10F2D00073EECE0160DCE3DE682F70E041E0CE012A
:10F2E0005CDB6AEA73EECE0156DC4FE065EA73EE52
:10F2F000CE0172DC62EA73EECE014DDCE7DE682FF0
:10F3000070E041E0CE0149DB6FE973EECE0143DCF2
:10F310006CE973EECE01DF91CF911F910F913BCC41
:10F32000CF93DF93EC0163E773EE35DC6FE373EEAD
:10F33000CE0131DC4FE069E373EECE014DDC66E3D4
:10F3400073EECE0128DC6BE273EECE0124DC68E2C2
:10F3500073EECE0120DC4FE060E273EECE013CDCC8
:10F360006DE173EECE0117DC64E173EECE0113DCC8
:10F3700061E173EECE010FDC4FE066E073EECE018B
:10F380002BDC63E073EECE0106DC60E073EECE01B1
:10F3900002DC6DEF72EECE01FEDB4FE062EF72EE4B
:10F3A000CE011ADC6FEE72EECE01F5DB6CEE72EE82
:10F3B000CE01F1DB69EE72EECE01EDDB66EE72EEB0
:10F3C000CE01DF91CF91E7CB1F920F920FB60F9234
:10F3D00011240BB60F922F938F939F93EF93FF936C
:10F3E0009091880220914602921789F0E92FF0E06F
:10F3F000EB5FFD4F80818093C60081E0890F8034F0
:10F4000010F081EC890F80938802821305C08091EF
:10F41000C1008F7D8093C100FF91EF919F918F91EB
:10F420002F910F900BBE0F900FBE0F901F9018954D
:10F430001F920F920FB60F9211240BB60F922F93BB
:10F440008F939F93EF93FF932091470290914502F2
:10F45000E92FF0E08091C600E85BFD4F808381E0FA
:10F46000890F803410F081EC890F281380934502B6
:10F47000FF91EF919F918F912F910F900BBE0F9065
:10F480000FBE0F901F901895F89439DA4ADDA5DE6B
:10F490000F940AF2811101C014D8789427D88111F1
:10F4A000FDCF0F942DF28836B9F048F48136D1F0B3
:10F4B0008536A1F08F33D1F40F9436F2EFCF823737
:10F4C00099F020F4893691F476D8E8CF833741F06B
:10F4D000873761F4C3D8E2CF9FD8E0CF00DADECF20
:10F4E000B3D9DCCFA6D8DACF6FD9D8CF14D8D6CF3E
:10F4F000AA1BBB1B51E107C0AA1FBB1FA617B7075A
:10F5000010F0A61BB70B881F991F5A95A9F7809575
:10F510009095BC01CD010895A1E21A2EAA1BBB1B38
:10F52000FD010DC0AA1FBB1FEE1FFF1FA217B307CF
:10F53000E407F50720F0A21BB30BE40BF50B661FE5
:10F54000771F881F991F1A9469F7609570958095A9
:10F5500090959B01AC01BD01CF010895F894FFCFB8
:040000033000E000E9
:00000001FF
