:10E0000054C2000064C2000062C2000060C200008E
:10E010005EC200005CC200005AC2000058C200008C
:10E0200056C2000054C2000052C2000050C200009C
:10E030004EC200004CC200004AC2000048C20000AC
:10E0400046C2000044C2000042C2000040C20000BC
:10E050000C94907A0C94657A3AC2000038C20000A1
:10E0600036C2000034C2000032C2000030C20000DC
:10E070000C94EA7C0C94BF7C2AC200006572726F1B
:10E0800072005553420058424545005253323332D4
:10E09000005B3F3F3F20205D2032362E31302E3155
:10E0A0003500426F6F746C6F616465722020563466
:10E0B0002E30000D0A00736F757263652F626F6FEB
:10E0C000746C6F616465722F626F6F746C6F6164E2
:10E0D00065722E632032362E31302E3230313520AB
:10E0E00056312E302E320D0A0020203C656D7074A2
:10E0F000793E0D0A00626F6F746C6F616465723AED
:10E100000D0A000D0A000D0A003230303030303078
:10E1100030003A20002020465F43505500736F7551
:10E120007263652F64656C61792F64656C61792E0B
:10E13000632032372E30392E323031352056312E91
:10E14000302E300D0A000D0A0020205B656D7074C2
:10E15000795D0D0A0064656C61793A0D0A000D0A5B
:10E160000020205B656D7074795D0D0A00736F751A
:10E170007263652F737472696E672F737472696E40
:10E18000672E632030352E31302E32303135205617
:10E19000312E312E300D0A000D0A0020205B656DF6
:10E1A0007074795D0D0A00737472696E673A0D0AB6
:10E1B0000066616C73650074727565000D0A000D70
:10E1C0000A00003A20002020444953504C41595F36
:10E1D000444154415F4849000D0A0043003A200081
:10E1E0002020444953504C41595F444154415F50B1
:10E1F0004F5254000D0A0031003A200020204449BB
:10E2000053504C41595F50494E5F5257000D0A0020
:10E2100030003A20002020444953504C41595F506F
:10E22000494E5F5253000D0A0032003A2000202070
:10E23000444953504C41595F50494E5F45000D0AC7
:10E240000042003A20002020444953504C41595F7D
:10E25000504F525400736F757263652F6469737009
:10E260006C61792F646973706C61792E6320323729
:10E270002E30392E323031352056312E302E300DA1
:10E280000A000D0A000D0A003A20002020656E6188
:10E29000626C656400646973706C61793A0D0A00A0
:10E2A0000D0A000D0A00323536003A2000202055B4
:10E2B000415254305F5458000D0A00323536003A4E
:10E2C0002000202055415254305F5258000D0A0062
:10E2D0003230303030303030003A20002020465F7D
:10E2E000435055000D0A0061746D65676136343422
:10E2F00070003A200020204D435500736F75726303
:10E30000652F75617274302F75617274305F61743E
:10E310006D656761363434702E632032362E3130AD
:10E320002E323031352056312E302E300D0A00730A
:10E330006F757263652F75617274302F75617274B9
:10E34000302E632032362E31302E32303135205689
:10E35000312E302E310D0A000D0A000D0A003A2030
:10E360000020207278000D0A003A200020207478E6
:10E37000000D0A003A2000202062617564000D0A39
:10E38000003A200020205542525230000D0A003A37
:10E3900020002020656E61626C6564007561727496
:10E3A000303A0D0A000D0A000D0A00323536003AE7
:10E3B0002000202055415254315F5458000D0A006E
:10E3C000323536003A2000202055415254315F52F8
:10E3D00058000D0A003230303030303030003A20F2
:10E3E000002020465F435055000D0A0061746D65A2
:10E3F000676136343470003A200020204D435500C8
:10E40000736F757263652F75617274312F756172E8
:10E4100074315F61746D656761363434702E6320CA
:10E4200032362E31302E323031352056312E302ECC
:10E43000300D0A00736F757263652F7561727431E8
:10E440002F75617274312E632032362E31302E32A8
:10E450003031352056312E302E310D0A000D0A0094
:10E460000D0A003A200020207278000D0A003A20A0
:10E470000020207478000D0A003A200020206261FC
:10E480007564000D0A003A20002020554252523196
:10E49000000D0A003A20002020656E61626C656400
:10E4A0000075617274313A0D0A0011241FBECFEF5E
:10E4B000D0E1DEBFCDBF15E0A0E0B1E001C01D920C
:10E4C000AC30B107E1F70E940D7D0C94827D98CDB0
:10E4D000833020F492B19C7F982B92B9089583E009
:10E4E00081B912B888E184B980E185B98CE087B937
:10E4F00088B91AB81BB80895D4D480D60E94587B26
:10E500008AE090E09FD2FDD60C94DB7B80910001E5
:10E510008F3F09F407C60C94EC7A809100018F3F7D
:10E5200009F459C60C94457B909100019F3F09F472
:10E53000ECC50C94DF7AD3DF84E690E083D20299B5
:10E5400003C01092000105C0039905C082E08093CA
:10E550000001D7D607C0049932C08FEF8093000125
:10E560000E94DB7B80910001B3DF8EE7DDDF62EA92
:10E5700070EE83E397E7AFD361E080E099D461E97F
:10E5800070EE83E397E7A7D361E081E091D48091B7
:10E590000001823039F08F3F41F081110DC06BE8EE
:10E5A00070EE05C066E870EE02C062E870EE83E3CC
:10E5B00097E791D38FEF08956CE770EEF8CF80E086
:10E5C0000895CF932C9A439A429AC2E3A6DF8823F8
:10E5D00051F080910001823061F08F3F61F0811134
:10E5E0000BC02C9809C081E090E02CD2C15071F78B
:10E5F000F0CF439801C042988FEFCF9108950895CE
:10E600002C98439842988FEF089586E48DDF84E339
:10E610008BDF8DE089CF81E487DF8091010184DF8A
:10E620008091020181DF80E07FDF8DE07DCFCF939D
:10E63000DF93EC0165EF70EE4ED369EE70EECE0124
:10E64000DF91CF9148C3CF93DF93EC0166EB70EE7F
:10E6500042D363EB70EECE01DF91CF913CC378944F
:10E660004BDFF89481E085BF15BE07B600FCFDCFF7
:10E67000F999FECF81E180935700E89584E190E01D
:10E68000E1D10C9400000895CF93C3E3C15039F059
:10E6900044DF811109C081E090E0D4D1F7CF91DF50
:10E6A000811104C0DCDF02C080E001C08FEFCF9198
:10E6B0000895CF93F89407B600FCFDCFF999FECFEB
:10E6C00081E180935700E8957894F999FECF07B6D9
:10E6D00000FCFDCF85E628DF82E726DF82E724DF26
:10E6E0008FE622DF82E720DF8DE01EDF89DF8111E8
:10E6F00001C0B5DFC4E611DF811102C0C15002C004
:10E7000005DFC4E681E090E09DD1C111F4CFCF9147
:10E710000895CF93C5E6C15039F0FFDE811106C0E0
:10E7200081E090E08FD1F7CFC4DF01C0CFEF8C2F15
:10E73000CF910895CF93C82FECDF882339F0E6DE20
:10E740008C1711F0B6DF02C08FEF01C080E0CF91CF
:10E7500008958EE6EFDF882309F42BC086E6EADF12
:10E76000882339F18FE6E6DF882319F189E4DCDEBE
:10E77000E0E0F0E081E2809357008491D5DEE2E0B2
:10E78000F0E081E2809357008491CEDEE4E0F0E097
:10E7900081E2809357008491C7DE80E0C5DE81E08E
:10E7A000C3DE80E0C1DE80EEBFDE80E0BDDE8DE056
:10E7B000BBCE089585E6BEDF882341F08CE6BADF44
:10E7C000882321F080E7B6DF811119CF089584E610
:10E7D000B1DF882381F082E7ADDF882361F087E62F
:10E7E000A9DF882341F085E6A5DF882321F084E7AF
:10E7F000A1DF811110CF0895CF92DF92EF92FF92A7
:10E800000F931F93CF93DF9382E794DF882309F45C
:10E8100083C089E68FDF882309F47EC084E78ADF1E
:10E82000882309F479C085E685DF882309F474C05C
:10E83000F89407B600FCFDCFF999FECFE0910101F5
:10E84000F091020183E080935700E8957894F9995C
:10E85000FECF07B600FCFDCFC0910101D0910201AF
:10E8600080E8E82EF12CCC24C39453DF882309F4EC
:10E8700053C04CDED82E082F4CDF882309F44CC03F
:10E8800045DED80EFD0C182FF89407B600FCFDCF1E
:10E89000F999FECFFE010801C0925700E8951124B6
:10E8A0007894F999FECF07B600FCFDCFEA94229642
:10E8B000E110DBCFF89407B600FCFDCFF999FECF4D
:10E8C000E0910101F091020185E080935700E89505
:10E8D0007894F999FECF07B600FCFDCFF89407B6FF
:10E8E00000FCFDCFF999FECF81E180935700E895B8
:10E8F0007894F999FECF07B600FCFDCF87E514DECA
:10E900008F2D12DE8DE0DF91CF911F910F91FF903F
:10E91000EF90DF90CF9008CEDF91CF911F910F91B4
:10E92000FF90EF90DF90CF900895FF920F931F9389
:10E93000CF93DF9385E6FEDE882311F181E6FADED0
:10E940008823F1F084E6F6DE8823D1F082E5ECDD61
:10E95000C0910101D09102018E011395F12CFE01AD
:10E960008491F80EE1DD2196C017D107C1F78F2DF4
:10E97000DBDD8DE0DF91CF911F910F91FF90D4CD22
:10E98000DF91CF911F910F91FF900895CF92DF9269
:10E99000EF92FF9285E6CEDE882309F439C084E742
:10E9A000C9DE882309F434C081E6C4DE882381F1FE
:10E9B00084E6C0DE882361F182E7BCDE882341F172
:10E9C000A8DE882329F1A2DDC12CD12C7601C82E26
:10E9D000A0DE8823E9F09ADDD82E9BDE8823C1F0E3
:10E9E00095DDCC24EE24FF24C11480EED806E1048A
:10E9F000F10428F0FF90EF90DF90CF905ACED092A4
:10EA00000201C0920101FF90EF90DF90CF9003CE02
:10EA1000FF90EF90DF90CF90089588E78BDE8823FA
:10EA200059F089E687DE882339F084E783DE88237E
:10EA300019F080E479DD13CE089581E085BF82E08E
:10EA400085BF0895009769F024EC39E000000000CC
:10EA5000000000002150310921153105B9F7019757
:10EA6000F1CF08958A95F1F7089531E4009729F0E0
:10EA7000232F2A95F1F70197F9CF0895CF93DF93CC
:10EA8000EC0165E571EE27D169E471EECE0123D189
:10EA900066E471EECE01DF91CF911DC1CF93DF937C
:10EAA000EC016DE171EE17D14FE065E171EECE0141
:10EAB0002FD162E171EECE010ED169E071EECE018F
:10EAC0000AD166E071EECE0106D163E071EECE01AF
:10EAD000DF91CF9100C1FF920F931F93CF93DF93EC
:10EAE00000D000D000D0CDB7DEB78C01CB014132D1
:10EAF00008F040E250E02AE030E0FF24F394F50E05
:10EB0000E1E0F0E0EC0FFD1FE50FF11DB901C4D706
:10EB1000805D8083CB01009711F05F2DEECFF4165E
:10EB200038F480E24E83F80109954E814150F7CFC9
:10EB3000FA94FFEFFF1651F0E1E0F0E0EC0FFD1F5B
:10EB4000EF0DF11D8081F8010995F2CF26960FB6E1
:10EB5000F894DEBF0FBECDBFDF91CF911F910F9113
:10EB6000FF9008950F931F93CF93DF9300D01F92D0
:10EB7000CDB7DEB78C0177FF13C071956195710930
:10EB80008DE24B8369837A83F80109954B81698112
:10EB90007A81413218F4442319F001C040E2415017
:10EBA000C8010F900F900F90DF91CF911F910F919F
:10EBB00092CFEF92FF920F931F93CF93DF931F9209
:10EBC000CDB7DEB77C018B0147FF09C0419580E3DB
:10EBD0004983F701099588E7F7010995498145308F
:10EBE00054F484E090E0841B910947FD9395982F9D
:10EBF000990F990F01C090E0092E02C0000F111F5C
:10EC00000A94E2F790319CF4812F82958F708A30BC
:10EC100010F4805D01C0895C9983F701099584E057
:10EC2000000F111F8A95E1F799819C5FEBCF0F9040
:10EC3000DF91CF911F910F91FF90EF900895CF92A8
:10EC4000DF92FF920F931F93CF93DF931F92CDB765
:10EC5000DEB76C018B0147FF09C0419580E3498312
:10EC6000F601099582E6F60109954981413124F4BE
:10EC700020E1F22EF41A01C0F12C0F2C02C0000F7B
:10EC8000111F0A94E2F7FFE0FF155CF017FF02C0C6
:10EC900081E301C080E3F6010995000F111FF39491
:10ECA000F2CF0F90DF91CF911F910F91FF90DF90E6
:10ECB000CF9008950F931F93CF93DF938C01EB01B7
:10ECC0008991882319F0F8010995FACFDF91CF9146
:10ECD0001F910F9108950F931F93CF93DF93EC0132
:10ECE000FB0184918B010F5F1F4F882321F0FE01F0
:10ECF0000995B801F5CFDF91CF911F910F9108953C
:10ED0000662319F067EB71EE02C061EB71EEE3CFA1
:10ED1000FF920F931F93CF93DF93EC014150FB01C0
:10ED20004F3FB1F084918F010F5F1F4FFF24FA9482
:10ED3000F40E811108C0142F112351F080E2FE015E
:10ED400009951150F9CFFE010995F8014F2DE8CF33
:10ED5000DF91CF911F910F91FF900895CF93DF9393
:10ED6000EC0167EA71EEB7DF6BE971EECE01B3DF5C
:10ED700068E971EECE01DF91CF91ADCFCF93DF93F4
:10ED8000EC016DE671EEA7DF61E671EECE01A3DF67
:10ED90006EE571EECE01DF91CF919DCF81E090E0E5
:10EDA00064DE2A9A81E090E060DE2A9881E090E0BB
:10EDB0005CCECF93DF93809103018823A1F1299A40
:10EDC00028982A9888B18F7088B987B18F7087B9D1
:10EDD00084B1876084B980910301853010F084E0AC
:10EDE00003C08091030181508093030181E090E092
:10EDF0003CDEC4E6DFEF809103018F3F61F0C1503C
:10EE000051F02A9A81E090E030DE379BD0930301E5
:10EE10002A98C4DFF0CF299880910301811103C0A3
:10EE200084B1887F84B9DF91CF910895CF93C82FA3
:10EE3000C0DF809103018F3FA1F497B1906F97B924
:10EE400028B19C2F907F2F70922B98B9A7DF28B103
:10EE500030E1C39FC00111242F70282B28B9CF9116
:10EE60009DCFCF910895CF93C82FA3DF8091030149
:10EE70008F3FA9F4289A97B1906F97B928B19C2F2A
:10EE8000907F2F70922B98B989DF28B130E1C39F12
:10EE9000C00111242F70282B28B9CF917FCFCF919B
:10EEA000089581E0C3CF82E0C1CF83708C60BECF74
:10EEB0008F7060FD806461FD80618068B7CFEF92E4
:10EEC000FF920F931F93CF93DF9300D0CDB7DEB7A0
:10EED000877028E0829FC0011124806469837A834F
:10EEE000A5DF6981E62E7A81F72E8701085F1F4F23
:10EEF000F70181917F01B7DFE016F106C9F70F90A6
:10EF00000F90DF91CF911F910F91FF90EF90089597
:10EF10008FEF80930301089510920301089590915B
:10EF2000030181E09F3F09F080E00895CF93DF93D4
:10EF3000EC0165E972EECFDE4FE06BE872EECE01D8
:10EF4000E7DE68E872EECE01C6DE8091030161E083
:10EF50008F3F09F060E0CE01D3DE65E872EECE01AE
:10EF6000BADE62E872EECE01DF91CF91B4CECF93DC
:10EF7000DF93EC0165E572EEAEDE44E166E472EE2D
:10EF8000CE01C6DE63E472EECE01A5DE61E472EE70
:10EF9000CE01A1DE6EE372EECE019DDE44E16EE2B3
:10EFA00072EECE01B5DE6BE272EECE0194DE69E266
:10EFB00072EECE0190DE66E272EECE018CDE44E1AE
:10EFC00065E172EECE01A4DE62E172EECE0183DE77
:10EFD00060E172EECE017FDE6DE072EECE017BDE8F
:10EFE00044E16CEF71EECE0193DE69EF71EECE017C
:10EFF00072DE67EF71EECE016EDE64EF71EECE0170
:10F000006ADE44E160EE71EECE0182DE6DED71EEFE
:10F01000CE0161DE6BED71EECE015DDE68ED71EE6D
:10F02000CE0159DE44E166EC71EECE0171DE63EC97
:10F0300071EECE0150DE62EC71EECE014CDE6FEB74
:10F0400071EECE0148DE6CEB71EECE01DF91CF9117
:10F0500042CE8FEF80930301299828982A9888B18F
:10F060008F7088B984B1876084B987B1806F87B9A0
:10F070008FE090E0E7DC88B18F70806388B98EDE26
:10F0800085E090E0DFDC8ADE86E990E0EEDC86DE7B
:10F09000299887B1806F87B988B18F70806288B9ED
:10F0A0007DDE88E2C3DE86E0C1DE8CE0BFDE81E08B
:10F0B000BDCE9FB7F894309107032091050232131B
:10F0C0000BC04091C10043FF07C04091C00045FF05
:10F0D00003C08093C60016C0E22FF0E0EC5FFE4F45
:10F0E00080832F5F321303C09FBF80E00895209379
:10F0F00005028091C10083FF05C08091C10080623C
:10F100008093C1009FBF8FEF0895CF93C82F8C2F9E
:10F11000D0DF811105C078948091C10083FDF7CFC5
:10F12000CF910895F894909106028091040298136B
:10F1300013C08091C10084FF07C08091C00087FF89
:10F1400003C08091C60010C078948091C10084FFF4
:10F150000DC00000F894F8CFE92FF0E0E95FFD4F13
:10F1600080819F5F909306027894089580E00895CF
:10F170009FB7F8942091060280910402281749F065
:10F18000E22FF0E0E95FFD4F80812F5F20930602C0
:10F190000AC08091C10084FF08C08091C00087FF31
:10F1A00004C08091C6009FBF08959FBF80E008956E
:10F1B0009FB7F8942091070380910502821B8F3F2F
:10F1C00041F02091C10023FF04C02091C00025FF21
:10F1D0008F5F9FBF08959FB7F8942091060280919A
:10F1E0000402821B8F3F41F02091C10024FF04C024
:10F1F0002091C00027FD8F5F9FBF08958FB7F894BF
:10F200001092070310920502109206021092040257
:10F210008FBF0895CF939C01CFB7009711F480E082
:10F220001EC0BC017695679580E090E060537D4EEE
:10F230008C4E9F4F40E050E043D4215031094109AA
:10F240005109452B61F7C9018827907F892B39F730
:10F25000F8943093C5002093C400CFBF8FEFCF91B7
:10F2600008958FB7F8949091C400292F9091C5000C
:10F27000392F8FBF3F702F5F3F4FB901769567954C
:10F2800080E090E060537D4E8C4E9F4F40E050E018
:10F2900017D4452B11F4C90108958FEF9FEF0895FE
:10F2A0009FB7F8948091C10088608093C1008091DD
:10F2B000C10080618093C100209105028091070305
:10F2C000281729F08091C10080628093C10080914D
:10F2D000C10080688093C1009FBF0895109207030A
:10F2E0001092050210920602109204021092C000C1
:10F2F0001092C1008EE08093C20080E091EE8ADF20
:10F30000CFCF9FB7F894E1ECF0E08081877F8083D6
:10F3100080818F7E808380818F7D808380818F77C5
:10F3200080839FBF08959091C100987181E09831CA
:10F3300009F080E0819508950F931F93CF93DF9399
:10F34000EC016CE973EEC7DC4FE062E973EECE01CD
:10F35000DFDC6FE873EECE01BEDCE5DF682FCE01A7
:10F36000CFDC6CE873EECE01B6DC8FB7F8949091E9
:10F37000C400692F9091C500792F8FBF8B011F703A
:10F380004FE064E873EECE01C3DC61E873EECE01BA
:10F39000A2DC45E0B801CE019EDB6EE773EECE0144
:10F3A0009ADC4FE067E773EECE01B2DC64E773EE00
:10F3B000CE0191DC56DF45E0BC01CE018CDB61E77C
:10F3C00073EECE0188DC4FE06CE673EECE01A0DC7C
:10F3D00069E673EECE017FDCEBDE682F70E041E082
:10F3E000CE0179DB66E673EECE0175DC4FE061E6B7
:10F3F00073EECE018DDC6EE573EECE016CDCEBDEE0
:10F40000682F70E041E0CE0166DB6BE573EECE0164
:10F4100062DC68E573EECE01DF91CF911F910F9111
:10F420005ACCCF93DF93EC016FE273EE54DC6BEFB9
:10F4300072EECE0150DC4FE065EF72EECE0168DC7B
:10F4400062EF72EECE0147DC67EE72EECE0143DC76
:10F4500064EE72EECE013FDC4FE06CED72EECE0159
:10F4600057DC69ED72EECE0136DC60ED72EECE0156
:10F4700032DC6DEC72EECE012EDC4FE062EC72EE0F
:10F48000CE0146DC6FEB72EECE0125DC6BEB72EE4B
:10F49000CE0121DC68EB72EECE011DDC4FE06DEA9F
:10F4A00072EECE0135DC6AEA72EECE0114DC66EA59
:10F4B00072EECE0110DC63EA72EECE010CDC60EA83
:10F4C00072EECE01DF91CF9106CC1F920F920FB654
:10F4D0000F9211242F938F939F93EF93FF9380911B
:10F4E000070390910502891761F0E82FF0E0EC5FC7
:10F4F000FE4F20812093C6008F5F809307038913FE
:10F5000005C08091C1008F7D8093C100FF91EF9174
:10F510009F918F912F910F900FBE0F901F90189574
:10F520001F920F920FB60F9211242F938F939F93D8
:10F53000EF93FF939091060280910402E82FF0E090
:10F540002091C600E95FFD4F20838F5F9813809361
:10F550000402FF91EF919F918F912F910F900FBE19
:10F560000F901F9018959FB7F89430910B0420913D
:10F570000A0432130BC04091C90043FF07C04091F9
:10F58000C80045FF03C08093CE0016C0E22FF0E014
:10F59000E45FFB4F80832F5F321303C09FBF80E087
:10F5A000089520930A048091C90083FF05C08091CB
:10F5B000C90080628093C9009FBF8FEF0895CF93E9
:10F5C000C82F8C2FD0DF811105C078948091C9009D
:10F5D00083FDF7CFCF910895F8949091090480911D
:10F5E0000803981313C08091C90084FF07C080915D
:10F5F000C80087FF03C08091CE0010C0789480912E
:10F60000C90084FF0DC00000F894F8CFE92FF0E0A6
:10F61000E75FFC4F80819F5F909309047894089581
:10F6200080E008959FB7F894209109048091080321
:10F63000281749F0E22FF0E0E75FFC4F80812F5F51
:10F64000209309040AC08091C90084FF08C08091FA
:10F65000C80087FF04C08091CE009FBF08959FBF60
:10F6600080E008959FB7F89420910B0480910A04DC
:10F67000821B8F3F41F02091C90023FF04C02091DD
:10F68000C80025FF8F5F9FBF08959FB7F894209112
:10F69000090480910803821B8F3F41F02091C9002B
:10F6A00024FF04C02091C80027FD8F5F9FBF0895ED
:10F6B0008FB7F89410920B0410920A041092090468
:10F6C000109208038FBF0895CF939C01CFB7009786
:10F6D00011F480E01EC0BC017695679580E090E053
:10F6E00060537D4E8C4E9F4F40E050E0E9D1215059
:10F6F000310941095109452B61F7C9018827907FDC
:10F70000892B39F7F8943093CD002093CC00CFBFEC
:10F710008FEFCF9108958FB7F8949091CC00292F57
:10F720009091CD00392F8FBF3F702F5F3F4FB901B0
:10F730007695679580E090E060537D4E8C4E9F4FAC
:10F7400040E050E0BDD1452B11F4C90108958FEF81
:10F750009FEF08959FB7F8948091C90088608093C7
:10F76000C9008091C90080618093C90020910A047A
:10F7700080910B04281729F08091C9008062809342
:10F78000C9008091C90080688093C9009FBF089517
:10F7900010920B0410920A041092090410920803AC
:10F7A0001092C8001092C9008EE08093CA0080E0D9
:10F7B00091EE8ADFCFCF9FB7F894E9ECF0E080813B
:10F7C000877F808380818F7E808380818F7D80830F
:10F7D00080818F7780839FBF08959091C900987131
:10F7E00081E0983109F080E0819508950F931F938F
:10F7F000CF93DF93EC0161EA74EE6DDA4FE067E9D5
:10F8000074EECE0185DA64E974EECE0164DAE5DFE8
:10F81000682FCE0175DA61E974EECE015CDA8FB73C
:10F82000F8949091CC00692F9091CD00792F8FBFE3
:10F830008B011F704FE069E874EECE0169DA66E86B
:10F8400074EECE0148DA45E0B801CE0144D963E850
:10F8500074EECE0140DA4FE06CE774EECE0158DA78
:10F8600069E774EECE0137DA56DF45E0BC01CE0120
:10F8700032D966E774EECE012EDA4FE061E774EE1E
:10F88000CE0146DA6EE674EECE0125DAEBDE682FA5
:10F8900070E041E0CE011FD96BE674EECE011BDAB9
:10F8A0004FE066E674EECE0133DA63E674EECE0125
:10F8B00012DAEBDE682F70E041E0CE010CD960E691
:10F8C00074EECE0108DA6DE574EECE01DF91CF91D2
:10F8D0001F910F9100CACF93DF93EC0164E374EEA4
:10F8E000FAD960E074EECE01F6D94FE06AEF73EE1C
:10F8F000CE010EDA67EF73EECE01EDD96CEE73EE4A
:10F90000CE01E9D969EE73EECE01E5D94FE061EEA3
:10F9100073EECE01FDD96EED73EECE01DCD965ED4F
:10F9200073EECE01D8D962ED73EECE01D4D94FE09B
:10F9300067EC73EECE01ECD964EC73EECE01CBD95B
:10F9400060EC73EECE01C7D96DEB73EECE01C3D977
:10F950004FE062EB73EECE01DBD96FEA73EECE01BE
:10F96000BAD96BEA73EECE01B6D968EA73EECE016E
:10F97000B2D965EA73EECE01DF91CF91ACC91F9287
:10F980000F920FB60F9211242F938F939F93EF93A3
:10F99000FF9380910B0490910A04891761F0E82F7E
:10F9A000F0E0E45FFB4F20812093CE008F5F8093D7
:10F9B0000B04891305C08091C9008F7D8093C90015
:10F9C000FF91EF919F918F912F910F900FBE0F900C
:10F9D0001F9018951F920F920FB60F9211242F931C
:10F9E0008F939F93EF93FF93909109048091080365
:10F9F000E82FF0E02091CE00E75FFC4F20838F5F7F
:10FA0000981380930803FF91EF919F918F912F910D
:10FA10000F900FBE0F901F901895F8940ED819DB19
:10FA20005DDCB6DE0E949B72811102C00E942F73C2
:10FA300078940E9444738111FCCF0E9486728836AC
:10FA4000C9F048F48136F9F08536B9F08F3309F5FD
:10FA50000E940573EECF8237C9F028F48936C9F4C5
:10FA60000E94A973E6CF833759F0873791F40E943B
:10FA7000FC73DFCF0E94DA73DCCF0E940D75D9CF03
:10FA80000E94C674D6CF0E94E773D3CF0E949574AC
:10FA9000D0CF0E945973CDCFAA1BBB1B51E107C029
:10FAA000AA1FBB1FA617B70710F0A61BB70B881F0E
:10FAB000991F5A95A9F780959095BC01CD0108959D
:10FAC000A1E21A2EAA1BBB1BFD010DC0AA1FBB1F62
:10FAD000EE1FFF1FA217B307E407F50720F0A21BD4
:10FAE000B30BE40BF50B661F771F881F991F1A9441
:10FAF00069F760957095809590959B01AC01BD016B
:08FB0000CF010895F894FFCF36
:040000030000E00019
:00000001FF
