:10E0000057C2000067C2000065C2000063C2000082
:10E0100061C200005FC200005DC200005BC2000080
:10E0200059C2000057C2000055C2000053C2000090
:10E0300051C200004FC200004DC200004BC20000A0
:10E0400049C2000047C200000C94467A0C941B7A27
:10E0500041C200003FC200003DC200003BC20000C0
:10E0600039C2000037C2000035C2000033C20000D0
:10E0700031C200002FC200000C94C07C0C94907C34
:10E0800029C2000027C2000025C2000052533233CB
:10E0900032005842454520005B58424545205D20EE
:10E0A00032352E31302E313500426F6F746C6F6116
:10E0B000646572202056342E30000D0A00736F758F
:10E0C0007263652F626F6F746C6F616465722F622B
:10E0D0006F6F746C6F616465722E632032332E3102
:10E0E000302E323031352056312E302E310D0A008F
:10E0F00020203C656D7074793E0D0A00626F6F746C
:10E100006C6F616465723A0D0A000D0A000D0A0019
:10E110003136303030303030003A20002020465F39
:10E1200043505500736F757263652F64656C617938
:10E130002F64656C61792E632032372E30392E3290
:10E140003031352056312E302E300D0A000D0A00A8
:10E1500020205B656D7074795D0D0A0064656C61EB
:10E16000793A0D0A000D0A0020205B656D70747904
:10E170005D0D0A00736F757263652F737472696E3B
:10E18000672F737472696E672E632030352E3130BD
:10E190002E323031352056312E312E300D0A000D01
:10E1A0000A0020205B656D7074795D0D0A00737440
:10E1B00072696E673A0D0A0066616C73650074726D
:10E1C0007565000D0A000D0A005B756E6465666971
:10E1D0006E65645D003A20002020444953504C4154
:10E1E000595F444154415F4849000D0A0041003ADB
:10E1F00020002020444953504C41595F4441544130
:10E200005F504F5254000D0A0036003A2000202083
:10E21000444953504C41595F50494E5F5257000D8D
:10E220000A0035003A20002020444953504C4159FF
:10E230005F50494E5F5253000D0A0034003A2000EF
:10E240002020444953504C41595F50494E5F45008E
:10E250000D0A0041003A20002020444953504C410F
:10E26000595F504F525400736F757263652F646924
:10E2700073706C61792F646973706C61792E63209F
:10E2800032372E30392E323031352056312E302E65
:10E29000300D0A000D0A000D0A003A20002020650A
:10E2A0006E61626C656400646973706C61793A0DCB
:10E2B0000A000D0A000D0A003634003A2000202022
:10E2C00055415254305F5458000D0A003634003A1C
:10E2D0002000202055415254305F5258000D0A0052
:10E2E0003136303030303030003A20002020465F68
:10E2F000435055000D0A0061746D65676136340046
:10E300003A200020204D435500736F757263652FCE
:10E3100075617274302F75617274305F61746D65F0
:10E32000676136342E632032372E30392E32303149
:10E33000352056312E302E300D0A00736F75726302
:10E34000652F75617274302F75617274302E632081
:10E3500032372E30392E323031352056312E302E94
:10E36000300D0A000D0A000D0A003A20002020722C
:10E3700078000D0A003A200020207478000D0A0071
:10E380003A2000202062617564000D0A003A2000E6
:10E3900020205542525230000D0A003A2000202021
:10E3A000656E61626C65640075617274303A0D0A65
:10E3B000000D0A000D0A003634003A2000202055D6
:10E3C000415254315F5458000D0A003634003A204F
:10E3D00000202055415254315F5258000D0A00313F
:10E3E00036303030303030003A20002020465F4355
:10E3F0005055000D0A0061746D6567613634003A4E
:10E40000200020204D435500736F757263652F7592
:10E41000617274312F75617274315F61746D6567FB
:10E420006136342E632032372E30392E323031357A
:10E430002056312E302E300D0A00736F75726365D1
:10E440002F75617274312F75617274312E632032B1
:10E45000372E30392E323031352056312E302E3095
:10E460000D0A000D0A000D0A003A200020207278E3
:10E47000000D0A003A200020207478000D0A003AAE
:10E480002000202062617564000D0A003A200020FF
:10E49000205542525231000D0A003A2000202065DA
:10E4A0006E61626C65640075617274313A0D0A00C8
:10E4B00011241FBECFEFD0E1DEBFCDBF12E0A0E040
:10E4C000B1E001C01D92AD30B107E1F70E94E87CD8
:10E4D0000C945D7D95CD1092640010926500C3D4BC
:10E4E00064D60E94297B8AE090E090D2CCD60C942E
:10E4F000AC7B8091000180FF03C044D68111EBC545
:10E500008091000181FFF5CF0E94127B882389F35F
:10E510000C94AB7ACF93DF938091000180FF04C00D
:10E5200031D6C82FD0E002C0C0E0D0E08091000119
:10E5300081FF08C00E94127BC80FD11DCF3FD105BB
:10E5400009F010F48C2F01C08FEFDF91CF91089567
:10E55000CF93C82F8091000180FF02C08C2FB0D5CF
:10E560008091000181FF03C08C2FCF91E7C7CF912D
:10E5700008951092640084E08093650082E390E047
:10E5800045D28091630082FD16C01092010182E0A5
:10E59000809300018EE7DCDF69EA70EE86E197E7A1
:10E5A0007ED361E080E066D468E970EE86E197E7AB
:10E5B00076D38FEF089580E0089580916300847092
:10E5C00090910101891701F18093010181111CC013
:10E5D00080E4BEDF61E081E04DD4809100018230B3
:10E5E00031F082E08093000162E970EE05C081E0C5
:10E5F000809300016CE870EE86E197E750D3D5D5A3
:10E600000E94297B8EE7A4DF8FEF08950895089577
:10E610008FEF089586E49CDF84E39ADF8DE098CF46
:10E6200081E496DF8091020193DF8091030190DF06
:10E6300080E08EDF8DE08CCFCF93DF93EC016CEF29
:10E6400070EE2DD360EF70EECE01DF91CF9127C336
:10E65000CF93DF93EC016DEB70EE21D36AEB70EE9C
:10E66000CE01DF91CF911BC3789435DFF89481E020
:10E6700085BF15BE8091680080FDFCCFE199FECF7B
:10E6800081E180936800E89584E190E0BFD10C942B
:10E6900000000895CF93C3E3C15039F03BDF8111EF
:10E6A00009C081E090E0B2D1F7CF87DF811104C0CB
:10E6B000DBDF02C080E001C08FEFCF910895CF93E0
:10E6C00085E646DF82E744DF82E742DF8FE640DF10
:10E6D00082E73EDF8DE03CDF9BDF811101C0C4DFBC
:10E6E000C4E618DF811102C0C15002C002DFC4E6D7
:10E6F00081E090E08BD1C111F4CFCF910895CF93F9
:10E70000C5E6C15039F006DF811106C081E090E016
:10E710007DD1F7CFD4DF01C0CFEF8C2FCF910895FB
:10E72000CF93C82FECDF882339F0E3DE8C1711F08C
:10E73000C6DF02C08FEF01C080E0CF9108958EE662
:10E74000EFDF8823E1F086E6EBDF8823C1F08FE678
:10E75000E7DF8823A1F089E4FBDE8EE1F9DE86E9BC
:10E76000F7DE82E0F5DE80E0F3DE81E0F1DE80E0DE
:10E77000EFDE80EEEDDE80E0EBDE8DE0E9CE0895A9
:10E7800085E6CEDF882341F08CE6CADF882321F0BE
:10E7900080E7C6DF81113BCF089584E6C1DF88237F
:10E7A00081F082E7BDDF882361F087E6B9DF882347
:10E7B00041F085E6B5DF882321F084E7B1DF8111E0
:10E7C0002FCF0895BF92CF92DF92EF92FF920F93D7
:10E7D0001F93CF93DF9382E7A3DF882309F475C0EB
:10E7E00089E69EDF882309F470C084E799DF8823D7
:10E7F00009F46BC085E694DF882309F466C0809134
:10E80000680080FDFCCFE199FECFE0910201F0911C
:10E81000030183E080936800E8958091680080FDA3
:10E82000FCCF7F01F394EF01D12CBB24B39467DFBD
:10E83000882309F44AC05DDEC82E082F60DF8823D4
:10E8400009F443C056DEC80EDC0C182FF8948091F2
:10E85000680080FDFCCFE199FECFFE010801B09277
:10E860006800E895112478942296CE15DF05F9F614
:10E87000F8948091680080FDFCCFE199FECFE09193
:10E880000201F091030185E080936800E895809192
:10E89000680080FDFCCF78948091680080FDFCCFFB
:10E8A000E199FECF81E180936800E89587E550DE2D
:10E8B0008D2D4EDE8DE0DF91CF911F910F91FF9056
:10E8C000EF90DF90CF90BF9043CEDF91CF911F911B
:10E8D0000F91FF90EF90DF90CF90BF900895FF923F
:10E8E0000F931F93CF93DF9385E61ADF882361F19F
:10E8F00081E616DF882341F184E612DF882321F1C7
:10E9000082E526DE8091680080FDFCCFE199FECF94
:10E9100081E180936800E895C0910201D0910301E4
:10E920008E011395F12CFE018491F80E11DE2196D3
:10E93000C017D107C1F78F2D0BDE8DE0DF91CF918E
:10E940001F910F91FF9004CEDF91CF911F910F91F6
:10E95000FF900895CF92DF92EF92FF9285E6E0DE7E
:10E96000882309F439C084E7DBDE882309F434C046
:10E9700081E6D6DE882381F184E6D2DE882361F148
:10E9800082E7CEDE882341F1BADE882329F1B1DDAA
:10E99000C12CD12C7601C82EB2DE8823E9F0A9DD86
:10E9A000D82EADDE8823C1F0A4DDCC24EE24FF24D4
:10E9B000C11480EED806E104F10428F0FF90EF9036
:10E9C000DF90CF907CCED0920301C0920201FF90E5
:10E9D000EF90DF90CF9024CEFF90EF90DF90CF901C
:10E9E000089588E79DDE882359F089E699DE88231B
:10E9F00039F084E795DE882319F080E4A9DD34CE70
:10EA0000089581E085BF82E085BF0895009769F091
:10EA100020ED37E000000000000000002150310927
:10EA200021153105B9F70197F1CF08958A95F1F7CE
:10EA3000089534E3009729F0232F2A95F1F70197E1
:10EA4000F9CF0895CF93DF93EC016CE571EE27D1F8
:10EA500060E571EECE0123D16DE471EECE01DF9160
:10EA6000CF911DC1CF93DF93EC0164E271EE17D11A
:10EA70004FE06CE171EECE012FD169E171EECE0174
:10EA80000ED160E171EECE010AD16DE071EECE01E2
:10EA900006D16AE071EECE01DF91CF9100C1FF9205
:10EAA0000F931F93CF93DF9300D000D000D0CDB74A
:10EAB000DEB78C01CB01413208F040E250E02AE0A1
:10EAC00030E0FF24F394F50EE1E0F0E0EC0FFD1FE1
:10EAD000E50FF11DB901BBD7805D8083CB010097A5
:10EAE00011F05F2DEECFF41638F480E24E83F8017A
:10EAF00009954E814150F7CFFA94FFEFFF1651F080
:10EB0000E1E0F0E0EC0FFD1FEF0DF11D8081F80159
:10EB10000995F2CF26960FB6F894DEBF0FBECDBF93
:10EB2000DF91CF911F910F91FF9008950F931F9345
:10EB3000CF93DF9300D01F92CDB7DEB78C0177FF64
:10EB400013C07195619571098DE24B8369837A8356
:10EB5000F80109954B8169817A81413218F4442387
:10EB600019F001C040E24150C8010F900F900F9082
:10EB7000DF91CF911F910F9192CFEF92FF920F9360
:10EB80001F93CF93DF931F92CDB7DEB77C018B012C
:10EB900047FF09C0419580E34983F701099588E75C
:10EBA000F70109954981453054F484E090E0841BD5
:10EBB000910947FD9395982F990F990F01C090E007
:10EBC000092E02C0000F111F0A94E2F790319CF445
:10EBD000812F82958F708A3010F4805D01C0895C2E
:10EBE0009983F701099584E0000F111F8A95E1F7D9
:10EBF00099819C5FEBCF0F90DF91CF911F910F9187
:10EC0000FF90EF900895CF92DF92FF920F931F93A2
:10EC1000CF93DF931F92CDB7DEB76C018B0147FF17
:10EC200009C0419580E34983F601099582E6F60122
:10EC300009954981413124F420E1F22EF41A01C0F2
:10EC4000F12C0F2C02C0000F111F0A94E2F7FFE015
:10EC5000FF155CF017FF02C081E301C080E3F601FD
:10EC60000995000F111FF394F2CF0F90DF91CF9110
:10EC70001F910F91FF90DF90CF9008950F931F93F6
:10EC8000CF93DF938C01EB018991882319F0F80170
:10EC90000995FACFDF91CF911F910F9108950F93AE
:10ECA0001F93CF93DF93EC01FB0184918B010F5FE6
:10ECB0001F4F882321F0FE010995B801F5CFDF91A0
:10ECC000CF911F910F910895662319F06EEB71EEAD
:10ECD00002C068EB71EEE3CFFF920F931F93CF93C7
:10ECE000DF93EC014150FB014F3FB1F084918F0164
:10ECF0000F5F1F4FFF24FA94F40E811108C0142FE8
:10ED0000112351F080E2FE0109951150F9CFFE0167
:10ED10000995F8014F2DE8CFDF91CF911F910F9109
:10ED2000FF900895CF93DF93EC016EEA71EEB7DFA9
:10ED300062EA71EECE01B3DF6FE971EECE01DF91D1
:10ED4000CF91ADCFCF93DF93EC0164E771EEA7DFF6
:10ED500068E671EECE01A3DF65E671EECE01DF91CC
:10ED6000CF919DCF81E090E064DEDC9A81E090E07D
:10ED700060DEDC9881E090E05CCECF93DF93809101
:10ED800004018823A1F1DE9ADD98DC988BB3807FA3
:10ED90008BBB8AB3807F8ABB8AB380678ABB809132
:10EDA0000401853010F084E003C08091040181509B
:10EDB0008093040181E090E03CDEC4E6DFEF8091C7
:10EDC00004018F3F61F0C15051F0DC9A81E090E086
:10EDD00030DECB9BD0930401DC98C4DFF0CFDE980B
:10EDE00080910401811103C08AB38F788ABBDF91BF
:10EDF000CF910895CF93C82FC0DF809104018F3F3A
:10EE000099F49AB39F609ABB2BB39C2F92959F70F5
:10EE1000207F922B9BBBA6DF9BB38C2F8F70907FA4
:10EE2000892B8BBBCF919ECFCF910895CF93C82FC5
:10EE3000A4DF809104018F3FA1F4DD9A9AB39F6013
:10EE40009ABB2BB39C2F92959F70207F922B9BBBDC
:10EE500089DF9BB38C2F8F70907F892B8BBBCF91D9
:10EE600081CFCF91089581E0C5CF82E0C3CF837079
:10EE70008C60C0CF8F7060FD806461FD80618068B0
:10EE8000B9CFEF92FF920F931F93CF93DF9300D0F0
:10EE9000CDB7DEB7877028E0829FC001112480645F
:10EEA00069837A83A7DF6981E62E7A81F72E87014D
:10EEB000085F1F4FF70181917F01B8DFE016F1066F
:10EEC000C9F70F900F90DF91CF911F910F91FF9095
:10EED000EF9008958FEF809304010895109204013C
:10EEE00008959091040181E09F3F09F080E008952A
:10EEF000CF93DF93EC0167EA72EED1DE4FE06DE96C
:10EF000072EECE01E9DE6AE972EECE01C8DE8091D2
:10EF1000040161E08F3F09F060E0CE01D5DE67E9D2
:10EF200072EECE01BCDE64E972EECE01DF91CF91CC
:10EF3000B6CECF93DF93EC0167E672EEB0DE44E12C
:10EF400068E572EECE01C8DE65E572EECE01A7DEA1
:10EF500063E572EECE01A3DE60E572EECE019FDEC8
:10EF600044E160E472EECE01B7DE6DE372EECE01F5
:10EF700096DE6BE372EECE0192DE68E372EECE01B6
:10EF80008EDE44E167E272EECE01A6DE64E272EE4E
:10EF9000CE0185DE62E272EECE0181DE6FE172EEBD
:10EFA000CE017DDE44E16EE072EECE0195DE6BE0D7
:10EFB00072EECE0174DE69E072EECE0170DE66E0C4
:10EFC00072EECE016CDE44E162EF71EECE0184DEC2
:10EFD0006FEE71EECE0163DE6DEE71EECE015FDE9F
:10EFE0006AEE71EECE015BDE44E168ED71EECE01BA
:10EFF00073DE65ED71EECE0152DE69EC71EECE018D
:10F000004EDE66EC71EECE014ADE63EC71EECE01AF
:10F01000DF91CF9144CE8FEF80930401DE98DD988D
:10F02000DC988BB3807F8BBB8AB380678ABB8AB343
:10F030008F608ABB8FE090E0E9DC8BB3807F8360D8
:10F040008BBB90DE85E090E0E1DC8CDE86E990E031
:10F05000F0DC88DEDE988AB38F608ABB8BB3807F5A
:10F0600082608BBB7FDE88E2C5DE86E0C3DE8CE09B
:10F07000C1DE81E0BFCE2FB7F89430918801909126
:10F080004601391306C0539B04C05D9B02C08CB976
:10F0900014C0E92FF0E0EB5FFE4F808381E0890F21
:10F0A000803410F081EC890F381303C02FBF80E04B
:10F0B0000895809346015399559A2FBF8FEF089575
:10F0C000CF93C82F8C2FD7DF811103C07894539929
:10F0D000F9CFCF910895F89490914701809145011F
:10F0E00098130CC0549B04C05F9B02C08CB113C02A
:10F0F0007894549B12C00000F894FACFE92FF0E006
:10F10000E85BFE4F808121E0290F203410F021ECD4
:10F11000290F209347017894089580E008959FB7C0
:10F12000F8942091470180914501281771F0E22F52
:10F13000F0E0E85BFE4F808131E0320F303410F0B8
:10F1400031EC320F3093470105C0549B05C05F9BE3
:10F1500003C08CB19FBF08959FBF80E008953FB763
:10F16000F8949091880120914601822F891B2917DC
:10F1700008F4805C8F3F21F0539B02C05D9B8F5F42
:10F180003FBF08953FB7F894909147012091450102
:10F19000822F891B291708F4805C8F3F21F0549B34
:10F1A00002C05F998F5F3FBF08958FB7F8941092A8
:10F1B00088011092460110924701109245018FBFBD
:10F1C0000895CF939C01CFB7009711F480E01DC044
:10F1D000BC017695679580E090E0605C7D4B804F48
:10F1E0009F4F40E050E047D4215031094109510977
:10F1F000452B61F7C9018827907F892B39F7F8944F
:10F200003093900029B9CFBF8FEFCF9108958FB77A
:10F21000F89499B1292F90919000392F8FBF3F70AA
:10F220002F5F3F4FB9017695679580E090E0605C75
:10F230007D4B804F9F4F40E050E01DD4452B11F493
:10F24000C90108958FEF9FEF08958FB7F894539AEF
:10F25000549A20914601909188012913559A579A02
:10F260008FBF0895109288011092460110924701B5
:10F27000109245011BB81AB88EE08093950080E08B
:10F2800091EE9FDFE2CF8FB7F8945398549855983A
:10F2900057988FBF08959AB1987181E0983109F01D
:10F2A00080E0819508950F931F93CF93DF93EC0136
:10F2B00068EA73EEF4DC4FE06EE973EECE010CDD2C
:10F2C0006BE973EECE01EBDCE6DF682FCE01FCDCF0
:10F2D00068E973EECE01E3DC8FB7F89499B1692F3A
:10F2E00090919000792F8FBF8B011F704FE060E9E4
:10F2F00073EECE01F1DC6DE873EECE01D0DC45E0BB
:10F30000B801CE01CCDB6AE873EECE01C8DC4FE079
:10F3100063E873EECE01E0DC60E873EECE01BFDCA3
:10F3200076DF45E0BC01CE01BADB6DE773EECE01BE
:10F33000B6DC4FE068E773EECE01CEDC65E773EE36
:10F34000CE01ADDC0CDF682F70E041E0CE01A7DB21
:10F3500062E773EECE01A3DC4FE06DE673EECE0103
:10F36000BBDC6AE673EECE019ADC0CDF682F70E03E
:10F3700041E0CE0194DB67E673EECE0190DC64E6FB
:10F3800073EECE01DF91CF911F910F9188CCCF9377
:10F39000DF93EC016BE373EE82DC69E073EECE0188
:10F3A0007EDC4FE063E073EECE0196DC60E073EE4E
:10F3B000CE0175DC67EF72EECE0171DC64EF72EEA8
:10F3C000CE016DDC4FE06CEE72EECE0185DC69EEB5
:10F3D00072EECE0164DC60EE72EECE0160DC6DEDAB
:10F3E00072EECE015CDC4FE062ED72EECE0174DCB9
:10F3F0006FEC72EECE0153DC6CEC72EECE014FDCA2
:10F4000069EC72EECE014BDC4FE06EEB72EECE019A
:10F4100063DC6BEB72EECE0142DC68EB72EECE0188
:10F420003EDC65EB72EECE013ADC62EB72EECE01B1
:10F43000DF91CF9134CC1F920F920FB60F9211240F
:10F440002F938F939F93EF93FF9390918801209137
:10F450004601921781F0E92FF0E0EB5FFE4F8081CB
:10F460008CB981E0890F803410F081EC890F809392
:10F470008801821301C05598FF91EF919F918F9160
:10F480002F910F900FBE0F901F9018951F920F9203
:10F490000FB60F9211242F938F939F93EF93FF93A7
:10F4A0002091470190914501E92FF0E08CB1E85B94
:10F4B000FE4F808381E0890F803410F081EC890F4A
:10F4C000281380934501FF91EF919F918F912F9188
:10F4D0000F900FBE0F901F9018952FB7F894309192
:10F4E000CC019091CB0139130BC040919A0043FF9E
:10F4F00007C040919B0045FF03C080939C001BC048
:10F50000E92FF0E0E353FE4F808381E0890F8034E0
:10F5100010F081EC890F381303C02FBF80E00895ED
:10F520008093CB0180919A0083FF05C080919A005F
:10F53000806280939A002FBF8FEF0895CF93C82FDA
:10F540008C2FCBDF811105C0789480919A0083FDC8
:10F55000F7CFCF910895F8949091CA0180918901D5
:10F56000981313C080919A0084FF07C080919B007C
:10F5700087FF03C080919C0015C0789480919A0009
:10F5800084FF12C00000F894F8CFE92FF0E0E657AE
:10F59000FE4F808121E0290F203410F021EC290F4B
:10F5A0002093CA017894089580E008959FB7F89455
:10F5B0002091CA0180918901281771F0E22FF0E0B3
:10F5C000E657FE4F808131E0320F303410F031ECDD
:10F5D000320F3093CA010AC080919A0084FF08C09C
:10F5E00080919B0087FF04C080919C009FBF08957D
:10F5F0009FBF80E008953FB7F8949091CC0120918F
:10F60000CB01822F891B291708F4805C8F3F41F0C2
:10F6100090919A0093FF04C090919B0095FF8F5F9B
:10F620003FBF08953FB7F8949091CA012091890196
:10F63000822F891B291708F4805C8F3F41F090913D
:10F640009A0094FF04C090919B0097FD8F5F3FBF8D
:10F6500008958FB7F8941092CC011092CB011092BC
:10F66000CA01109289018FBF0895CF939C01CFB733
:10F67000009711F480E01EC0BC017695679580E08C
:10F6800090E0605C7D4B804F9F4F40E050E0F3D1B5
:10F690002150310941095109452B61F7C9018827DA
:10F6A000907F892B39F7F894309398002093990034
:10F6B000CFBF8FEFCF9108958FB7F89490919900B5
:10F6C000292F90919800392F8FBF3F702F5F3F4FA8
:10F6D000B9017695679580E090E0605C7D4B804F46
:10F6E0009F4F40E050E0C7D1452B11F4C901089568
:10F6F0008FEF9FEF08959FB7F89480919A008860EC
:10F7000080939A0080919A00806180939A00209162
:10F71000CB018091CC01281729F080919A0080625A
:10F7200080939A0080919A00806880939A009FBF8E
:10F7300008951092CC011092CB011092CA01109240
:10F74000890110929B0010929A008EE080939D0098
:10F7500080E091EE8ADFCFCF9FB7F894EAE9F0E03E
:10F760008081877F808380818F7E808380818F7D71
:10F77000808380818F7780839FBF089590919A00C6
:10F78000987181E0983109F080E0819508950F9398
:10F790001F93CF93DF93EC0167EA74EE80DA4FE0BA
:10F7A0006DE974EECE0198DA6AE974EECE0177DA8B
:10F7B000E5DF682FCE0188DA67E974EECE016FDAF3
:10F7C0008FB7F89490919900692F90919800792FB4
:10F7D0008FBF8B011F704FE06FE874EECE017CDAB3
:10F7E0006CE874EECE015BDA45E0B801CE0157D982
:10F7F00069E874EECE0153DA4FE062E874EECE01B0
:10F800006BDA6FE774EECE014ADA56DF45E0BC01F1
:10F81000CE0145D96CE774EECE0141DA4FE067E7DF
:10F8200074EECE0159DA64E774EECE0138DAE3DE25
:10F83000682F70E041E0CE0132D961E774EECE016D
:10F840002EDA4FE06CE674EECE0146DA69E674EE2D
:10F85000CE0125DAE7DE682F70E041E0CE011FD946
:10F8600066E674EECE011BDA63E674EECE01DF913C
:10F87000CF911F910F9113CACF93DF93EC016AE3ED
:10F8800074EE0DDA68E074EECE0109DA4FE062E062
:10F8900074EECE0121DA6FEF73EECE0100DA66EF7F
:10F8A00073EECE01FCD963EF73EECE01F8D94FE0D1
:10F8B0006BEE73EECE0110DA68EE73EECE01EFD987
:10F8C0006FED73EECE01EBD96CED73EECE01E7D99F
:10F8D0004FE061ED73EECE01FFD96EEC73EECE0119
:10F8E000DED96BEC73EECE01DAD968EC73EECE01A3
:10F8F000D6D94FE06DEB73EECE01EED96AEB73EE25
:10F90000CE01CDD967EB73EECE01C9D964EB73EEAE
:10F91000CE01C5D961EB73EECE01DF91CF91BFC9A6
:10F920001F920F920FB60F9211242F938F939F93D4
:10F93000EF93FF939091CC012091CB01921789F026
:10F94000E92FF0E0E353FE4F808180939C0081E03B
:10F95000890F803410F081EC890F8093CC018213E1
:10F9600005C080919A008F7D80939A00FF91EF915E
:10F970009F918F912F910F900FBE0F901F90189510
:10F980001F920F920FB60F9211242F938F939F9374
:10F99000EF93FF932091CA0190918901E92FF0E044
:10F9A00080919C00E657FE4F808381E0890F803470
:10F9B00010F081EC890F281380938901FF91EF915A
:10F9C0009F918F912F910F900FBE0F901F901895C0
:10F9D000F89417D820DB46DCACDE0E94B9728111A6
:10F9E00002C00E94347378940E944A738111FCCF44
:10F9F0000E9479728836C9F048F48136F9F085366C
:10FA0000B9F08F3309F50E940A73EECF8237C9F03F
:10FA100028F48936C9F40E949F73E6CF833759F0E2
:10FA2000873791F40E94E273DFCF0E94C073DCCF6E
:10FA30000E94F174D9CF0E94AA74D6CF0E94CD73D0
:10FA4000D3CF0E946F74D0CF0E945F73CDCFAA1B1B
:10FA5000BB1B51E107C0AA1FBB1FA617B70710F0B9
:10FA6000A61BB70B881F991F5A95A9F780959095EB
:10FA7000BC01CD010895A1E21A2EAA1BBB1BFD01FA
:10FA80000DC0AA1FBB1FEE1FFF1FA217B307E4077D
:10FA9000F50720F0A21BB30BE40BF50B661F771FD5
:10FAA000881F991F1A9469F76095709580959095B5
:0EFAB0009B01AC01BD01CF010895F894FFCF7A
:040000030000E00019
:00000001FF
