:020000023000CC
:10E000007BC200008DC200008BC2000089C20000EC
:10E0100087C2000085C2000083C2000081C20000E8
:10E020007FC200007DC200007BC2000079C20000F8
:10E0300077C2000075C2000073C2000071C2000008
:10E040006FC200006DC200006BC2000069C2000018
:10E0500067C2000065C2000063C2000061C2000028
:10E060005FC200000D940DFB0D94D9FA59C2000057
:10E0700057C2000055C2000053C2000051C2000048
:10E080004FC200004DC200004BC2000049C2000058
:10E090000D9490FD0D945CFD43C2000041C2000050
:10E0A0003FC200003DC200003BC2000039C2000078
:10E0B00037C2000035C2000033C2000031C2000088
:10E0C0002FC200002DC200002BC200005253323379
:10E0D00032005842454520005B58424545205D20AE
:10E0E00032352E31302E313500426F6F746C6F61D6
:10E0F000646572202056342E30000D0A00736F754F
:10E100007263652F626F6F746C6F616465722F62EA
:10E110006F6F746C6F616465722E632032362E31BE
:10E12000302E323031352056312E302E320D0A004D
:10E1300020203C656D7074793E0D0A00626F6F742B
:10E140006C6F616465723A0D0A000D0A000D0A00D9
:10E150003136303030303030003A20002020465FF9
:10E1600043505500736F757263652F64656C6179F8
:10E170002F64656C61792E632032372E30392E3250
:10E180003031352056312E302E300D0A000D0A0068
:10E1900020205B656D7074795D0D0A0064656C61AB
:10E1A000793A0D0A000D0A0020205B656D707479C4
:10E1B0005D0D0A00736F757263652F737472696EFB
:10E1C000672F737472696E672E632030352E31307D
:10E1D0002E323031352056312E312E300D0A000DC1
:10E1E0000A0020205B656D7074795D0D0A00737400
:10E1F00072696E673A0D0A0066616C73650074722D
:10E200007565000D0A000D0A005B756E6465666930
:10E210006E65645D003A20002020444953504C4113
:10E22000595F444154415F4849000D0A0041003A9A
:10E2300020002020444953504C41595F44415441EF
:10E240005F504F5254000D0A0036003A2000202043
:10E25000444953504C41595F50494E5F5257000D4D
:10E260000A0035003A20002020444953504C4159BF
:10E270005F50494E5F5253000D0A0034003A2000AF
:10E280002020444953504C41595F50494E5F45004E
:10E290000D0A0041003A20002020444953504C41CF
:10E2A000595F504F525400736F757263652F6469E4
:10E2B00073706C61792F646973706C61792E63205F
:10E2C00032372E30392E323031352056312E302E25
:10E2D000300D0A000D0A000D0A003A2000202065CA
:10E2E0006E61626C656400646973706C61793A0D8B
:10E2F0000A000D0A000D0A003634003A20002020E2
:10E3000055415254305F5458000D0A003634003ADB
:10E310002000202055415254305F5258000D0A0011
:10E320003136303030303030003A20002020465F27
:10E33000435055000D0A0061746D656761323536D2
:10E3400031003A200020204D435500736F757263F1
:10E35000652F75617274302F75617274305F6174EE
:10E360006D656761323536312E632032372E303994
:10E370002E323031352056312E302E300D0A0073BA
:10E380006F757263652F75617274302F7561727469
:10E39000302E632032362E31302E32303135205639
:10E3A000312E302E310D0A000D0A000D0A003A20E0
:10E3B0000020207278000D0A003A20002020747896
:10E3C000000D0A003A2000202062617564000D0AE9
:10E3D000003A200020205542525230000D0A003AE7
:10E3E00020002020656E61626C6564007561727446
:10E3F000303A0D0A000D0A000D0A003634003A20AA
:10E4000000202055415254315F5458000D0A003607
:10E4100034003A2000202055415254315F525800B8
:10E420000D0A003136303030303030003A200020D4
:10E4300020465F435055000D0A0061746D656761A9
:10E4400032353631003A200020204D435500736F9D
:10E45000757263652F75617274312F7561727431D5
:10E460005F61746D656761323536312E63203237F6
:10E470002E30392E323031352056312E302E300D9F
:10E480000A00736F757263652F75617274312F7531
:10E49000617274312E632032362E31302E3230319B
:10E4A000352056312E302E310D0A000D0A000D0A8E
:10E4B000003A200020207278000D0A003A20002047
:10E4C000207478000D0A003A2000202062617564F3
:10E4D000000D0A003A200020205542525231000D12
:10E4E0000A003A20002020656E61626C6564007548
:10E4F000617274313A0D0A0011241FBECFEFD1E2D0
:10E50000DEBFCDBF01E00CBF13E0A0E0B2E001C070
:10E510001D92AF30B107E1F70F94BCFD0D9432FEB0
:10E520006FCD13BA14BA19D5DDD60F94F5FB8AE076
:10E5300090E0DED25AD70D9478FC8091000280FFE3
:10E5400003C0B9D6811150C68091000281FFF5CF7A
:10E550000F94DEFB882389F30D9477FBCF93DF9331
:10E560008091000280FF04C0A6D6C82FD0E002C070
:10E57000C0E0D0E08091000281FF08C00F94DEFB74
:10E58000C80FD11DCF3FD10509F010F48C2F01C069
:10E590008FEFDF91CF910895CF93C82F8091000224
:10E5A00080FF02C08C2F13D68091000281FF04C02F
:10E5B0008C2FCF910D946AFBCF91089513BA84E00C
:10E5C00084BB82E390E094D2929916C0109201022B
:10E5D00082E0809300028EE7DFDF69EE70EE80E973
:10E5E00097EFCED361E080E0BFD468ED70EE80E9B4
:10E5F00097EFC6D38FEF089580E0089582B38470BB
:10E6000090910102891701F18093010281111CC0D0
:10E6100080E4C2DF61E081E0A7D480910002823013
:10E6200031F082E08093000262ED70EE05C081E07F
:10E63000809300026CEC70EE80E997EFA1D352D684
:10E640000F94F5FB8EE7A8DF8FEF089508950895E6
:10E650008FEF089586E4A0DF84E39EDF8DE09CCFFA
:10E6600081E49ADF8091020297DF8091030294DFB8
:10E670008091040291DF8DE08FCFCF93DF93EC0187
:10E680006CE371EE7DD360E371EECE01DF91CF914B
:10E6900077C3CF93DF93EC016DEF70EE71D36AEF28
:10E6A00070EECE01DF91CF916BC378943ADFF8948E
:10E6B00081E085BF15BE07B600FCFDCFF999FECFFE
:10E6C00081E180935700E89584E190E011D20C94A9
:10E6D00000000895CF93C3E3C15039F03FDF8111AB
:10E6E00009C081E090E004D2F7CF88DF811104C037
:10E6F000DCDF02C080E001C08FEFCF910895CF939F
:10E70000F89407B600FCFDCFF999FECF81E1809324
:10E710005700E8957894F999FECF07B600FCFDCF35
:10E7200085E63ADF82E738DF82E736DF8FE634DFDF
:10E7300082E732DF8DE030DF8BDF811101C0B5DF92
:10E74000C4E60CDF811102C0C15002C0F6DEC4E68F
:10E7500081E090E0CDD1C111F4CFCF910895CF9356
:10E76000C5E6C15039F0FADE811106C081E090E0C3
:10E77000BFD1F7CFC4DF01C0CFEF8C2FCF91089569
:10E78000CF93C82FECDF882339F0D7DE8C1711F038
:10E79000B6DF02C08FEF01C080E0CF9108958EE612
:10E7A000EFDF882309F42BC086E6EADF882339F1FE
:10E7B0008FE6E6DF882319F189E4EEDEE0E0F0E0A1
:10E7C00081E2809357008491E7DEE2E0F0E081E2AD
:10E7D000809357008491E0DEE4E0F0E081E28093F2
:10E7E00057008491D9DE80E0D7DE81E0D5DE80E07D
:10E7F000D3DE80EED1DE83E0CFDE8DE0CDCE089596
:10E8000085E6BEDF882341F08CE6BADF882321F05D
:10E8100080E7B6DF81111BCF089584E6B1DF88233E
:10E8200081F082E7ADDF882361F087E6A9DF8823E6
:10E8300041F085E6A5DF882321F084E7A1DF81117F
:10E840000FCF0895AF92BF92CF92DF92EF92FF92D7
:10E850000F931F93CF93DF9382E792DF882309F40E
:10E860009CC089E68DDF882309F497C084E788DFA0
:10E87000882309F492C085E683DF882309F48DC0DC
:10E88000F89407B600FCFDCFF999FECF8091020203
:10E8900090910302A0910402B091050223E0FC01D3
:10E8A000A0935B0020935700E8957894F999FECFE8
:10E8B00007B600FCFDCFC0900202D0900302E090AA
:10E8C0000402F090050200E810E0AA24A39447DFB8
:10E8D000882309F462C031DEB82EC82F40DF8823B8
:10E8E00009F45BC02ADEB80E1B0DD82FF89407B6CA
:10E8F00000FCFDCFF999FECF0E01F601E0925B001E
:10E90000A0925700E89511247894F999FECF07B6A4
:10E9100000FCFDCF015082E0C80ED11CE11CF11CAF
:10E920000111D5CFF89407B600FCFDCFF999FECFC1
:10E93000409102025091030260910402709105021D
:10E9400085E0FA0160935B0080935700E895789426
:10E95000F999FECF07B600FCFDCFF89407B600FC8E
:10E96000FDCFF999FECF81E180935700E895789427
:10E97000F999FECF07B600FCFDCF87E50DDE812FAC
:10E980000BDE8DE0DF91CF911F910F91FF90EF9003
:10E99000DF90CF90BF90AF90FFCDDF91CF911F91CF
:10E9A0000F91FF90EF90DF90CF90BF90AF900895C0
:10E9B000CF92DF92EF92FF921F93CF93DF9385E682
:10E9C000DFDE882369F181E6DBDE882349F184E616
:10E9D000D7DE882329F182E5DFDDC0900202D090E6
:10E9E0000302E0900402F0900502C0E0D1E010E0E4
:10E9F000EBBEF6018791180FCFDD21978FEFC81A74
:10EA0000D80AE80AF80A209799F7812FC5DD8DE02A
:10EA1000DF91CF911F91FF90EF90DF90CF90BCCD11
:10EA2000DF91CF911F91FF90EF90DF90CF900895ED
:10EA3000CF92DF92EF92FF9285E6A2DE882309F45F
:10EA40003DC084E79DDE882309F438C081E698DE66
:10EA50008823A1F184E694DE882381F182E790DEA9
:10EA6000882361F17CDE882349F167DDC12CD12C3C
:10EA70007601C82E74DE882309F15FDDD82E6FDEA3
:10EA80008823E1F05ADDE82ECC24C11480EED806AC
:10EA900083E0E806F10428F0FF90EF90DF90CF903C
:10EAA0002ECEC0920202D0920302E0920402F092B3
:10EAB0000502FF90EF90DF90CF90D2CDFF90EF90C6
:10EAC000DF90CF90089588E75BDE882359F089E6D0
:10EAD00057DE882339F084E753DE882319F080E479
:10EAE0005BDDE3CD089581E085BF82E085BF0895B9
:10EAF000009769F020ED37E0000000000000000002
:10EB00002150310921153105B9F70197F1CF089549
:10EB10008A95F1F7089534E3009729F0232F2A9579
:10EB2000F1F70197F9CF0895CF93DF93EC016CE9EA
:10EB300071EE26D160E971EECE0122D16DE871EE61
:10EB4000CE01DF91CF911CC1CF93DF93EC0164E63E
:10EB500071EE16D14FE06CE571EECE0132D169E570
:10EB600071EECE010DD160E571EECE0109D16DE4FB
:10EB700071EECE0105D16AE471EECE01DF91CF9145
:10EB8000FFC0FF920F931F93CF93DF9300D000D06D
:10EB9000CDB7DEB78C01CB01413208F040E250E046
:10EBA0002AE030E0FF24F394F50EE1E0F0E0EC0F12
:10EBB000FD1FE50FF11DB9010F94FCFD805D808301
:10EBC000CB01009711F05F2DEDCFF41638F480E201
:10EBD0004E83F80119954E814150F7CFFA94FFEF1B
:10EBE000FF1651F0E1E0F0E0EC0FFD1FEF0DF11D1D
:10EBF0008081F8011995F2CF26960FB6F894DEBF02
:10EC00000FBECDBFDF91CF911F910F91FF9008955F
:10EC10000F931F93CF93DF9300D0CDB7DEB78C0156
:10EC200077FF13C07195619571098DE24B836983FC
:10EC30007A83F80119954B8169817A81413218F400
:10EC4000442319F001C040E24150C8010F900F90D9
:10EC50000F90DF91CF911F910F9193CFEF92FF9281
:10EC60000F931F93CF93DF931F92CDB7DEB77C0135
:10EC70008B0147FF09C0419580E34983F70119954E
:10EC800088E7F70119954981453054F484E090E014
:10EC9000841B910947FD9395982F990F990F01C0F7
:10ECA00090E0092E02C0000F111F0A94E2F7903184
:10ECB0009CF4812F82958F708A3010F4805D01C0A2
:10ECC000895C9983F701199584E0000F111F8A95DB
:10ECD000E1F799819C5FEBCF0F90DF91CF911F916E
:10ECE0000F91FF90EF900895CF92DF92FF920F93D4
:10ECF0001F93CF93DF931F92CDB7DEB76C018B01CB
:10ED000047FF09C0419580E34983F601199582E6E2
:10ED1000F60119954981413124F420E1F22EF41ACB
:10ED200001C0F12C0F2C02C0000F111F0A94E2F752
:10ED3000FFE0FF155CF017FF02C081E301C080E334
:10ED4000F6011995000F111FF394F2CF0F90DF9188
:10ED5000CF911F910F91FF90DF90CF9008950F9367
:10ED60001F93CF93DF938C01EB018991882319F0D6
:10ED7000F8011995FACFDF91CF911F910F91089566
:10ED80000F931F93CF93DF938C01EB01AE016627A6
:10ED900057FD6095762F6BBFFA01879121968823E6
:10EDA00019F0F8011995F2CFDF91CF911F910F91D2
:10EDB0000895662319F06EEF71EE02C068EF71EEF0
:10EDC000DFCFEF92FF920F931F93CF93DF937C01DE
:10EDD000EB0141504F3FC9F08E01222717FD2095CE
:10EDE000322F2BBFF801879121961FEF140F81114D
:10EDF00008C0C42FCC2349F080E2F7011995C15017
:10EE0000F9CFF7011995412FE5CFDF91CF911F91F0
:10EE10000F91FF90EF900895CF93DF93EC016EEE8A
:10EE200071EEAEDF62EE71EECE01AADF6FED71EE34
:10EE3000CE01DF91CF91A4CFCF93DF93EC0164EBB0
:10EE400071EE9EDF68EA71EECE019ADF65EA71EE3F
:10EE5000CE01DF91CF9194CF81E090E05CDE149AF7
:10EE600081E090E058DE149881E090E054CECF939A
:10EE7000DF93809106028823A1F1169A15981498C1
:10EE800082B1807F82B981B1807F81B981B1806791
:10EE900081B980910602853010F084E003C0809132
:10EEA000060281508093060281E090E034DEC4E6E1
:10EEB000DFEF809106028F3F61F0C15051F0149A4C
:10EEC00081E090E028DE039BD09306021498C4DF13
:10EED000F0CF169880910602811103C081B18F781E
:10EEE00081B9DF91CF910895CF93C82FC0DF809172
:10EEF00006028F3F99F491B19F6091B922B19C2F86
:10EF000092959F70207F922B92B9A6DF92B18C2FA1
:10EF10008F70907F892B82B9CF919ECFCF9108952A
:10EF2000CF93C82FA4DF809106028F3FA1F4159ADA
:10EF300091B19F6091B922B19C2F92959F70207FD3
:10EF4000922B92B989DF92B18C2F8F70907F892B91
:10EF500082B9CF9181CFCF91089581E0C5CF82E072
:10EF6000C3CF83708C60C0CF8F7060FD806461FD03
:10EF700080618068B9CFEF92FF920F931F93CF9378
:10EF8000DF931F921F92CDB7DEB7877028E0829F74
:10EF9000C0011124806469837A83A6DF6981E62E2B
:10EFA0007A81F72E8701085F1F4FF70181917F015A
:10EFB000B7DFE016F106C9F70F900F90DF91CF9100
:10EFC0001F910F91FF90EF9008958FEF80930602AD
:10EFD00008951092060208959091060281E09F3FE5
:10EFE00009F080E00895CF93DF93EC0167EE72EEB5
:10EFF000C7DE4FE06DED72EECE01E3DE6AED72EE3C
:10F00000CE01BEDE8091060261E08F3F09F060E034
:10F01000CE01CFDE67ED72EECE01B2DE64ED72EEB0
:10F02000CE01DF91CF91ACCECF93DF93EC0167EAB5
:10F0300072EEA6DE44E168E972EECE01C2DE65E959
:10F0400072EECE019DDE63E972EECE0199DE60E9DB
:10F0500072EECE0195DE44E160E872EECE01B1DEE3
:10F060006DE772EECE018CDE6BE772EECE0188DECC
:10F0700068E772EECE0184DE44E167E672EECE010F
:10F08000A0DE64E672EECE017BDE62E672EECE01B9
:10F0900077DE6FE572EECE0173DE44E16EE472EE70
:10F0A000CE018FDE6BE472EECE016ADE69E472EEB1
:10F0B000CE0166DE66E472EECE0162DE44E162E31A
:10F0C00072EECE017EDE6FE272EECE0159DE6DE2AF
:10F0D00072EECE0155DE6AE272EECE0151DE44E1FF
:10F0E00068E172EECE016DDE65E172EECE0148DEC2
:10F0F00069E072EECE0144DE66E072EECE0140DEE3
:10F1000063E072EECE01DF91CF913ACE8FEF809324
:10F11000060216981598149882B1807F82B981B141
:10F12000806781B981B18F6081B98FE090E0E0DCC8
:10F1300082B1807F836082B98FDE85E090E0D8DC89
:10F140008BDE86E990E0E7DC87DE169881B18F6080
:10F1500081B982B1807F826082B97EDE88E2C4DEBE
:10F1600086E0C2DE8CE0C0DE81E0BECE2FB7F89430
:10F1700030918A029091480239130BC04091C1002E
:10F1800043FF07C04091C00045FF03C08093C60005
:10F190001BC0E92FF0E0E95FFD4F808381E0890F1C
:10F1A000803410F081EC890F381303C02FBF80E04A
:10F1B0000895809348028091C10083FF05C080912B
:10F1C000C10080628093C1002FBF8FEF0895CF935D
:10F1D000C82F8C2FCBDF811105C078948091C1009E
:10F1E00083FDF7CFCF910895F894909149028091D3
:10F1F0004702981313C08091C10084FF07C080911B
:10F20000C00087FF03C08091C60015C0789480912C
:10F21000C10084FF12C00000F894F8CFE92FF0E09D
:10F22000E65BFD4F808121E0290F203410F021ECB6
:10F23000290F209349027894089580E008959FB79C
:10F24000F8942091490280914702281771F0E22F2B
:10F25000F0E0E65BFD4F808131E0320F303410F09A
:10F2600031EC320F309349020AC08091C10084FF13
:10F2700008C08091C00087FF04C08091C6009FBF76
:10F2800008959FBF80E008953FB7F89490918A0257
:10F2900020914802822F891B291708F4805C8F3F38
:10F2A00041F09091C10093FF04C09091C00095FF80
:10F2B0008F5F3FBF08953FB7F89490914902209126
:10F2C0004702822F891B291708F4805C8F3F41F089
:10F2D0009091C10094FF04C09091C00097FD8F5F92
:10F2E0003FBF08958FB7F89410928A021092480297
:10F2F00010924902109247028FBF0895CF939C014C
:10F30000CFB7009711F480E01EC0BC0176956795D9
:10F3100080E090E0605C7D4B804F9F4F40E050E08C
:10F320007FD42150310941095109452B61F7C901A9
:10F330008827907F892B39F7F8943093C500209364
:10F34000C400CFBF8FEFCF9108958FB7F8949091FD
:10F35000C400292F9091C500392F8FBF3F702F5FB8
:10F360003F4FB9017695679580E090E0605C7D4BFA
:10F37000804F9F4F40E050E053D4452B11F4C9011A
:10F3800008958FEF9FEF08959FB7F8948091C10083
:10F3900088608093C1008091C10080618093C1002A
:10F3A0002091480280918A02281729F08091C1009B
:10F3B00080628093C1008091C10080688093C10009
:10F3C0009FBF089510928A0210924802109249023B
:10F3D000109247021092C0001092C1008EE08093FC
:10F3E000C20080E091EE8ADFCFCF9FB7F894E1ECC6
:10F3F000F0E08081877F808380818F7E8083808121
:10F400008F7D808380818F7780839FBF08959091C7
:10F41000C100987181E0983109F080E081950895EC
:10F420000F931F93CF93DF93EC016CEE73EEA8DC88
:10F430004FE062EE73EECE01C4DC6FED73EECE01F1
:10F440009FDCE5DF682FCE01B4DC6CED73EECE01FE
:10F4500097DC8FB7F8949091C400692F9091C50004
:10F46000792F8FBF8B011F704FE064ED73EECE01DB
:10F47000A8DC61ED73EECE0183DC45E0B801CE017E
:10F4800080DB6EEC73EECE017BDC4FE067EC73EE5D
:10F49000CE0197DC64EC73EECE0172DC56DF45E002
:10F4A000BC01CE016EDB61EC73EECE0169DC4FE096
:10F4B0006CEB73EECE0185DC69EB73EECE0160DCA4
:10F4C000E3DE682F70E041E0CE015BDB66EB73EEBC
:10F4D000CE0156DC4FE061EB73EECE0172DC6EEADA
:10F4E00073EECE014DDCE7DE682F70E041E0CE0127
:10F4F00048DB6BEA73EECE0143DC68EA73EECE01C3
:10F50000DF91CF911F910F913BCCCF93DF93EC0113
:10F510006FE773EE35DC6BE473EECE0131DC4FE068
:10F5200065E473EECE014DDC62E473EECE0128DCBF
:10F5300067E373EECE0124DC64E373EECE0120DCDE
:10F540004FE06CE273EECE013CDC69E273EECE017B
:10F5500017DC60E273EECE0113DC6DE173EECE01D9
:10F560000FDC4FE062E173EECE012BDC6FE073EE57
:10F57000CE0106DC6CE073EECE0102DC69E073EED6
:10F58000CE01FEDB4FE06EEF72EECE011ADC6BEFC8
:10F5900072EECE01F5DB68EF72EECE01F1DB65EFC6
:10F5A00072EECE01EDDB62EF72EECE01DF91CF9114
:10F5B000E7CB1F920F920FB60F9211240BB60F924A
:10F5C0002F938F939F93EF93FF9390918A022091B3
:10F5D0004802921789F0E92FF0E0E95FFD4F808142
:10F5E0008093C60081E0890F803410F081EC890F90
:10F5F00080938A02821305C08091C1008F7D809321
:10F60000C100FF91EF919F918F912F910F900BBEB1
:10F610000F900FBE0F901F9018951F920F920FB66C
:10F620000F9211240BB60F922F938F939F93EF930A
:10F63000FF932091490290914702E92FF0E08091D9
:10F64000C600E65BFD4F808381E0890F803410F0B7
:10F6500081EC890F281380934702FF91EF919F91CE
:10F660008F912F910F900BBE0F900FBE0F901F9098
:10F6700018952FB7F8943091CE029091CD0239139E
:10F680000BC04091C90043FF07C04091C80045FF2F
:10F6900003C08093CE001BC0E92FF0E0E153FD4F83
:10F6A000808381E0890F803410F081EC890F38135A
:10F6B00003C02FBF80E008958093CD028091C900E0
:10F6C00083FF05C08091C90080628093C9002FBF6D
:10F6D0008FEF0895CF93C82F8C2FCBDF811105C0FA
:10F6E00078948091C90083FDF7CFCF910895F89465
:10F6F0009091CC0280918B02981313C08091C90025
:10F7000084FF07C08091C80087FF03C08091CE00AE
:10F7100015C078948091C90084FF12C00000F8944D
:10F72000F8CFE92FF0E0E457FD4F808121E0290F69
:10F73000203410F021EC290F2093CC027894089506
:10F7400080E008959FB7F8942091CC0280918B02BD
:10F75000281771F0E22FF0E0E457FD4F808131E08F
:10F76000320F303410F031EC320F3093CC020AC03B
:10F770008091C90084FF08C08091C80087FF04C041
:10F780008091CE009FBF08959FBF80E008953FB74E
:10F79000F8949091CE022091CD02822F891B2917D7
:10F7A00008F4805C8F3F41F09091C90093FF04C042
:10F7B0009091C80095FF8F5F3FBF08953FB7F894C1
:10F7C0009091CC0220918B02822F891B291708F47B
:10F7D000805C8F3F41F09091C90094FF04C09091EC
:10F7E000C80097FD8F5F3FBF08958FB7F8941092C0
:10F7F000CE021092CD021092CC0210928B028FBFDB
:10F800000895CF939C01CFB7009711F480E01EC0FC
:10F81000BC017695679580E090E0605C7D4B804F01
:10F820009F4F40E050E0FCD121503109410951097E
:10F83000452B61F7C9018827907F892B39F7F89408
:10F840003093CD002093CC00CFBF8FEFCF910895A0
:10F850008FB7F8949091CC00292F9091CD00392F3B
:10F860008FBF3F702F5F3F4FB9017695679580E05E
:10F8700090E0605C7D4B804F9F4F40E050E0D0D1E6
:10F88000452B11F4C90108958FEF9FEF08959FB79D
:10F89000F8948091C90088608093C9008091C90064
:10F8A00080618093C9002091CD028091CE022817FB
:10F8B00029F08091C90080628093C9008091C900BD
:10F8C00080688093C9009FBF08951092CE02109265
:10F8D000CD021092CC0210928B021092C8001092AE
:10F8E000C9008EE08093CA0080E091EE8ADFCFCF1E
:10F8F0009FB7F894E9ECF0E08081877F8083808176
:10F900008F7E808380818F7D808380818F778083CD
:10F910009FBF08959091C900987181E0983109F0D6
:10F9200080E0819508950F931F93CF93DF93EC01AF
:10F930006FEE74EE25DA4FE065EE74EECE0141DA3B
:10F9400062EE74EECE011CDAE5DF682FCE0131DA0B
:10F950006FED74EECE0114DA8FB7F8949091CC006D
:10F96000692F9091CD00792F8FBF8B011F704FE0D1
:10F9700067ED74EECE0125DA64ED74EECE0100DAA7
:10F9800045E0B801CE01FDD861ED74EECE01F8D9A5
:10F990004FE06AEC74EECE0114DA67EC74EECE013F
:10F9A000EFD956DF45E0BC01CE01EBD864EC74EE34
:10F9B000CE01E6D94FE06FEB74EECE0102DA6CEBCC
:10F9C00074EECE01DDD9E3DE682F70E041E0CE01B8
:10F9D000D8D869EB74EECE01D3D94FE064EB74EE66
:10F9E000CE01EFD961EB74EECE01CAD9E7DE682F04
:10F9F00070E041E0CE01C5D86EEA74EECE01C0D908
:10FA00006BEA74EECE01DF91CF911F910F91B8C9CF
:10FA1000CF93DF93EC0162E874EEB2D96EE474EE3A
:10FA2000CE01AED94FE068E474EECE01CAD965E4E8
:10FA300074EECE01A5D96AE374EECE01A1D967E3D5
:10FA400074EECE019DD94FE06FE274EECE01B9D9CC
:10FA50006CE274EECE0194D963E274EECE0190D9DB
:10FA600060E274EECE018CD94FE065E174EECE0118
:10FA7000A8D962E174EECE0183D96FE074EECE01B5
:10FA80007FD96CE074EECE017BD94FE061E074EE7B
:10FA9000CE0197D96EEF73EECE0172D96BEF73EE94
:10FAA000CE016ED968EF73EECE016AD965EF73EEC1
:10FAB000CE01DF91CF9164C91F920F920FB60F92C2
:10FAC00011240BB60F922F938F939F93EF93FF9375
:10FAD0009091CE022091CD02921789F0E92FF0E0AB
:10FAE000E153FD4F80818093CE0081E0890F803407
:10FAF00010F081EC890F8093CE02821305C08091B3
:10FB0000C9008F7D8093C900FF91EF919F918F91E4
:10FB10002F910F900BBE0F900FBE0F901F90189556
:10FB20001F920F920FB60F9211240BB60F922F93C4
:10FB30008F939F93EF93FF932091CC0290918B0230
:10FB4000E92FF0E08091CE00E457FD4F808381E003
:10FB5000890F803410F081EC890F281380938B0279
:10FB6000FF91EF919F918F912F910F900BBE0F906E
:10FB70000FBE0F901F901895F8940F9473F5C6DA86
:10FB800021DCA3DE0F94DEF2811102C00F9455F345
:10FB900078940F946AF38111FCCF0F949DF288360C
:10FBA000C9F048F48136F9F08536B9F08F3309F59C
:10FBB0000F942AF3EECF8237C9F028F48936C9F4BE
:10FBC0000F94CFF3E6CF833759F0873791F40F9432
:10FBD00022F4DFCF0F9400F4DCCF0F9463F5D9CF7C
:10FBE0000F9418F5D6CF0F940DF4D3CF0F94D8F40B
:10FBF000D0CF0F947FF3CDCFAA1BBB1B51E107C021
:10FC0000AA1FBB1FA617B70710F0A61BB70B881FAC
:10FC1000991F5A95A9F780959095BC01CD0108953B
:10FC2000A1E21A2EAA1BBB1BFD010DC0AA1FBB1F00
:10FC3000EE1FFF1FA217B307E407F50720F0A21B72
:10FC4000B30BE40BF50B661F771F881F991F1A94DF
:10FC500069F760957095809590959B01AC01BD0109
:08FC6000CF010895F894FFCFD5
:040000033000E000E9
:00000001FF
